{
  "contractName": "Inventory",
  "abi": [
    {
      "inputs": [
        {
          "internalType": "address",
          "name": "_currency",
          "type": "address"
        }
      ],
      "stateMutability": "nonpayable",
      "type": "constructor"
    },
    {
      "inputs": [
        {
          "internalType": "address",
          "name": "_other",
          "type": "address"
        }
      ],
      "name": "approve",
      "outputs": [
        {
          "internalType": "bool",
          "name": "",
          "type": "bool"
        }
      ],
      "stateMutability": "nonpayable",
      "type": "function"
    },
    {
      "inputs": [
        {
          "internalType": "string",
          "name": "_description",
          "type": "string"
        }
      ],
      "name": "createItemType",
      "outputs": [
        {
          "internalType": "uint256",
          "name": "",
          "type": "uint256"
        }
      ],
      "stateMutability": "nonpayable",
      "type": "function"
    },
    {
      "inputs": [
        {
          "internalType": "uint256",
          "name": "_itemType",
          "type": "uint256"
        },
        {
          "internalType": "string",
          "name": "_description",
          "type": "string"
        },
        {
          "internalType": "uint256",
          "name": "_price",
          "type": "uint256"
        }
      ],
      "name": "createItem",
      "outputs": [
        {
          "internalType": "uint256",
          "name": "",
          "type": "uint256"
        }
      ],
      "stateMutability": "nonpayable",
      "type": "function"
    },
    {
      "inputs": [
        {
          "internalType": "uint256",
          "name": "_itemType",
          "type": "uint256"
        },
        {
          "internalType": "uint256",
          "name": "_item",
          "type": "uint256"
        }
      ],
      "name": "progressItemState",
      "outputs": [
        {
          "internalType": "bool",
          "name": "",
          "type": "bool"
        }
      ],
      "stateMutability": "nonpayable",
      "type": "function"
    },
    {
      "inputs": [],
      "name": "getItemTypesLength",
      "outputs": [
        {
          "internalType": "uint256",
          "name": "",
          "type": "uint256"
        }
      ],
      "stateMutability": "view",
      "type": "function"
    },
    {
      "inputs": [
        {
          "internalType": "uint256",
          "name": "_itemType",
          "type": "uint256"
        }
      ],
      "name": "getTypeDescription",
      "outputs": [
        {
          "internalType": "string",
          "name": "",
          "type": "string"
        }
      ],
      "stateMutability": "view",
      "type": "function"
    },
    {
      "inputs": [
        {
          "internalType": "uint256",
          "name": "_itemType",
          "type": "uint256"
        }
      ],
      "name": "getItemsLength",
      "outputs": [
        {
          "internalType": "uint256",
          "name": "",
          "type": "uint256"
        }
      ],
      "stateMutability": "view",
      "type": "function"
    },
    {
      "inputs": [
        {
          "internalType": "uint256",
          "name": "_itemType",
          "type": "uint256"
        },
        {
          "internalType": "uint256",
          "name": "_item",
          "type": "uint256"
        }
      ],
      "name": "getItemState",
      "outputs": [
        {
          "internalType": "enum Inventory.ItemState",
          "name": "",
          "type": "uint8"
        }
      ],
      "stateMutability": "view",
      "type": "function"
    },
    {
      "inputs": [
        {
          "internalType": "uint256",
          "name": "_itemType",
          "type": "uint256"
        },
        {
          "internalType": "uint256",
          "name": "_item",
          "type": "uint256"
        }
      ],
      "name": "getItemSeller",
      "outputs": [
        {
          "internalType": "address",
          "name": "",
          "type": "address"
        }
      ],
      "stateMutability": "view",
      "type": "function"
    },
    {
      "inputs": [
        {
          "internalType": "uint256",
          "name": "_itemType",
          "type": "uint256"
        },
        {
          "internalType": "uint256",
          "name": "_item",
          "type": "uint256"
        }
      ],
      "name": "getItemDescription",
      "outputs": [
        {
          "internalType": "string",
          "name": "",
          "type": "string"
        }
      ],
      "stateMutability": "view",
      "type": "function"
    },
    {
      "inputs": [
        {
          "internalType": "uint256",
          "name": "_itemType",
          "type": "uint256"
        },
        {
          "internalType": "uint256",
          "name": "_item",
          "type": "uint256"
        }
      ],
      "name": "getItemPrice",
      "outputs": [
        {
          "internalType": "uint256",
          "name": "",
          "type": "uint256"
        }
      ],
      "stateMutability": "view",
      "type": "function"
    },
    {
      "inputs": [
        {
          "internalType": "uint256",
          "name": "_itemType",
          "type": "uint256"
        },
        {
          "internalType": "uint256",
          "name": "_item",
          "type": "uint256"
        }
      ],
      "name": "getItem",
      "outputs": [
        {
          "internalType": "enum Inventory.ItemState",
          "name": "",
          "type": "uint8"
        },
        {
          "internalType": "address",
          "name": "",
          "type": "address"
        },
        {
          "internalType": "string",
          "name": "",
          "type": "string"
        },
        {
          "internalType": "uint256",
          "name": "",
          "type": "uint256"
        }
      ],
      "stateMutability": "view",
      "type": "function"
    },
    {
      "inputs": [
        {
          "internalType": "address",
          "name": "_seller",
          "type": "address"
        }
      ],
      "name": "isVerified",
      "outputs": [
        {
          "internalType": "bool",
          "name": "",
          "type": "bool"
        }
      ],
      "stateMutability": "view",
      "type": "function"
    },
    {
      "inputs": [
        {
          "internalType": "address",
          "name": "_seller",
          "type": "address"
        }
      ],
      "name": "verifySeller",
      "outputs": [
        {
          "internalType": "bool",
          "name": "",
          "type": "bool"
        }
      ],
      "stateMutability": "nonpayable",
      "type": "function"
    },
    {
      "inputs": [
        {
          "internalType": "address",
          "name": "_seller",
          "type": "address"
        }
      ],
      "name": "unverifySeller",
      "outputs": [
        {
          "internalType": "bool",
          "name": "",
          "type": "bool"
        }
      ],
      "stateMutability": "nonpayable",
      "type": "function"
    },
    {
      "inputs": [],
      "name": "getCurrencyAddress",
      "outputs": [
        {
          "internalType": "address",
          "name": "",
          "type": "address"
        }
      ],
      "stateMutability": "view",
      "type": "function"
    },
    {
      "inputs": [],
      "name": "getTaxAuthority",
      "outputs": [
        {
          "internalType": "address",
          "name": "",
          "type": "address"
        }
      ],
      "stateMutability": "view",
      "type": "function"
    }
  ],
  "bytecode": "0x608060405234801561001057600080fd5b50604051611cfd380380611cfd8339818101604052602081101561003357600080fd5b8101908080519060200190929190505050336000806101000a81548173ffffffffffffffffffffffffffffffffffffffff021916908373ffffffffffffffffffffffffffffffffffffffff16021790555080600760006101000a81548173ffffffffffffffffffffffffffffffffffffffff021916908373ffffffffffffffffffffffffffffffffffffffff16021790555050611c28806100d56000396000f3fe608060405234801561001057600080fd5b506004361061010b5760003560e01c80637931a666116100a2578063ca92a0dc11610071578063ca92a0dc1461062f578063cc3cdabe1461067d578063d1760e601461069b578063daea85c5146106f5578063e5e9baf71461074f5761010b565b80637931a666146104f357806385c976311461053f578063b9209e33146105a1578063bfe0c27e146105fb5761010b565b8063495222ad116100de578063495222ad1461027e57806359cc334a146102d85780636cae7574146103bf578063763652ab1461044c5761010b565b806320f3a96814610110578063264c0995146101b15780632bc1d6e9146101e55780632eed974014610227575b600080fd5b61019b6004803603606081101561012657600080fd5b81019080803590602001909291908035906020019064010000000081111561014d57600080fd5b82018360208201111561015f57600080fd5b8035906020019184600183028401116401000000008311171561018157600080fd5b909192939192939080359060200190929190505050610800565b6040518082815260200191505060405180910390f35b6101b9610989565b604051808273ffffffffffffffffffffffffffffffffffffffff16815260200191505060405180910390f35b610211600480360360208110156101fb57600080fd5b81019080803590602001909291905050506109b2565b6040518082815260200191505060405180910390f35b61025d6004803603604081101561023d57600080fd5b810190808035906020019092919080359060200190929190505050610a46565b6040518082600181111561026d57fe5b815260200191505060405180910390f35b6102c06004803603602081101561029457600080fd5b81019080803573ffffffffffffffffffffffffffffffffffffffff169060200190929190505050610b84565b60405180821515815260200191505060405180910390f35b61030e600480360360408110156102ee57600080fd5b810190808035906020019092919080359060200190929190505050610ca9565b6040518085600181111561031e57fe5b81526020018473ffffffffffffffffffffffffffffffffffffffff16815260200180602001838152602001828103825284818151815260200191508051906020019080838360005b83811015610381578082015181840152602081019050610366565b50505050905090810190601f1680156103ae5780820380516001836020036101000a031916815260200191505b509550505050505060405180910390f35b610436600480360360208110156103d557600080fd5b81019080803590602001906401000000008111156103f257600080fd5b82018360208201111561040457600080fd5b8035906020019184600183028401116401000000008311171561042657600080fd5b9091929391929390505050610ec5565b6040518082815260200191505060405180910390f35b6104786004803603602081101561046257600080fd5b8101908080359060200190929190505050610f0c565b6040518080602001828103825283818151815260200191508051906020019080838360005b838110156104b857808201518184015260208101905061049d565b50505050905090810190601f1680156104e55780820380516001836020036101000a031916815260200191505b509250505060405180910390f35b6105296004803603604081101561050957600080fd5b810190808035906020019092919080359060200190929190505050611038565b6040518082815260200191505060405180910390f35b6105756004803603604081101561055557600080fd5b810190808035906020019092919080359060200190929190505050611169565b604051808273ffffffffffffffffffffffffffffffffffffffff16815260200191505060405180910390f35b6105e3600480360360208110156105b757600080fd5b81019080803573ffffffffffffffffffffffffffffffffffffffff1690602001909291905050506112ba565b60405180821515815260200191505060405180910390f35b610603611310565b604051808273ffffffffffffffffffffffffffffffffffffffff16815260200191505060405180910390f35b6106656004803603604081101561064557600080fd5b81019080803590602001909291908035906020019092919050505061133a565b60405180821515815260200191505060405180910390f35b6106856116d5565b6040518082815260200191505060405180910390f35b6106dd600480360360208110156106b157600080fd5b81019080803573ffffffffffffffffffffffffffffffffffffffff1690602001909291905050506116df565b60405180821515815260200191505060405180910390f35b6107376004803603602081101561070b57600080fd5b81019080803573ffffffffffffffffffffffffffffffffffffffff169060200190929190505050611803565b60405180821515815260200191505060405180910390f35b6107856004803603604081101561076557600080fd5b81019080803590602001909291908035906020019092919050505061198c565b6040518080602001828103825283818151815260200191508051906020019080838360005b838110156107c55780820151818401526020810190506107aa565b50505050905090810190601f1680156107f25780820380516001836020036101000a031916815260200191505b509250505060405180910390f35b60006003548510610879576040517f08c379a00000000000000000000000000000000000000000000000000000000081526004018080602001828103825260168152602001807f4974656d54797065206f7574206f6620626f756e64730000000000000000000081525060200191505060405180910390fd5b6000600460008781526020019081526020016000205490503360056000888152602001908152602001600020600083815260200190815260200160002060000160016101000a81548173ffffffffffffffffffffffffffffffffffffffff021916908373ffffffffffffffffffffffffffffffffffffffff1602179055508484600560008981526020019081526020016000206000848152602001908152602001600020600101919061092d929190611b55565b508260056000888152602001908152602001600020600083815260200190815260200160002060020181905550600460008781526020019081526020016000206000815480929190600101919050555080915050949350505050565b60008060009054906101000a900473ffffffffffffffffffffffffffffffffffffffff16905090565b60006003548210610a2b576040517f08c379a00000000000000000000000000000000000000000000000000000000081526004018080602001828103825260168152602001807f4974656d54797065206f7574206f6620626f756e64730000000000000000000081525060200191505060405180910390fd5b60046000838152602001908152602001600020549050919050565b60006003548310610abf576040517f08c379a00000000000000000000000000000000000000000000000000000000081526004018080602001828103825260168152602001807f4974656d54797065206f7574206f6620626f756e64730000000000000000000081525060200191505060405180910390fd5b60046000848152602001908152602001600020548210610b47576040517f08c379a00000000000000000000000000000000000000000000000000000000081526004018080602001828103825260128152602001807f4974656d206f7574206f6620626f756e6473000000000000000000000000000081525060200191505060405180910390fd5b60056000848152602001908152602001600020600083815260200190815260200160002060000160009054906101000a900460ff16905092915050565b60008060009054906101000a900473ffffffffffffffffffffffffffffffffffffffff1673ffffffffffffffffffffffffffffffffffffffff163373ffffffffffffffffffffffffffffffffffffffff1614610c48576040517f08c379a00000000000000000000000000000000000000000000000000000000081526004018080602001828103825260098152602001807f6e6f74206f776e6572000000000000000000000000000000000000000000000081525060200191505060405180910390fd5b6000600160008473ffffffffffffffffffffffffffffffffffffffff1673ffffffffffffffffffffffffffffffffffffffff16815260200190815260200160002060006101000a81548160ff02191690831515021790555060019050919050565b600080606060006003548610610d27576040517f08c379a00000000000000000000000000000000000000000000000000000000081526004018080602001828103825260168152602001807f4974656d54797065206f7574206f6620626f756e64730000000000000000000081525060200191505060405180910390fd5b60046000878152602001908152602001600020548510610daf576040517f08c379a00000000000000000000000000000000000000000000000000000000081526004018080602001828103825260128152602001807f4974656d206f7574206f6620626f756e6473000000000000000000000000000081525060200191505060405180910390fd5b600060056000888152602001908152602001600020600087815260200190815260200160002090508060000160009054906101000a900460ff168160000160019054906101000a900473ffffffffffffffffffffffffffffffffffffffff16826001018360020154818054600181600116156101000203166002900480601f016020809104026020016040519081016040528092919081815260200182805460018160011615610100020316600290048015610eac5780601f10610e8157610100808354040283529160200191610eac565b820191906000526020600020905b815481529060010190602001808311610e8f57829003601f168201915b5050505050915094509450945094505092959194509250565b600082826002600060035481526020019081526020016000209190610eeb929190611b55565b50600360008154809291906001019190505550600160035403905092915050565b60606003548210610f85576040517f08c379a00000000000000000000000000000000000000000000000000000000081526004018080602001828103825260168152602001807f4974656d54797065206f7574206f6620626f756e64730000000000000000000081525060200191505060405180910390fd5b600260008381526020019081526020016000208054600181600116156101000203166002900480601f01602080910402602001604051908101604052809291908181526020018280546001816001161561010002031660029004801561102c5780601f106110015761010080835404028352916020019161102c565b820191906000526020600020905b81548152906001019060200180831161100f57829003601f168201915b50505050509050919050565b600060035483106110b1576040517f08c379a00000000000000000000000000000000000000000000000000000000081526004018080602001828103825260168152602001807f4974656d54797065206f7574206f6620626f756e64730000000000000000000081525060200191505060405180910390fd5b60046000848152602001908152602001600020548210611139576040517f08c379a00000000000000000000000000000000000000000000000000000000081526004018080602001828103825260128152602001807f4974656d206f7574206f6620626f756e6473000000000000000000000000000081525060200191505060405180910390fd5b60056000848152602001908152602001600020600083815260200190815260200160002060020154905092915050565b600060035483106111e2576040517f08c379a00000000000000000000000000000000000000000000000000000000081526004018080602001828103825260168152602001807f4974656d54797065206f7574206f6620626f756e64730000000000000000000081525060200191505060405180910390fd5b6004600084815260200190815260200160002054821061126a576040517f08c379a00000000000000000000000000000000000000000000000000000000081526004018080602001828103825260128152602001807f4974656d206f7574206f6620626f756e6473000000000000000000000000000081525060200191505060405180910390fd5b60056000848152602001908152602001600020600083815260200190815260200160002060000160019054906101000a900473ffffffffffffffffffffffffffffffffffffffff16905092915050565b6000600160008373ffffffffffffffffffffffffffffffffffffffff1673ffffffffffffffffffffffffffffffffffffffff16815260200190815260200160002060009054906101000a900460ff169050919050565b6000600760009054906101000a900473ffffffffffffffffffffffffffffffffffffffff16905090565b60008282600060056000848152602001908152602001600020600083815260200190815260200160002060000160019054906101000a900473ffffffffffffffffffffffffffffffffffffffff1690503373ffffffffffffffffffffffffffffffffffffffff168173ffffffffffffffffffffffffffffffffffffffff16148061144e5750600660003373ffffffffffffffffffffffffffffffffffffffff1673ffffffffffffffffffffffffffffffffffffffff16815260200190815260200160002060009054906101000a900473ffffffffffffffffffffffffffffffffffffffff1673ffffffffffffffffffffffffffffffffffffffff168173ffffffffffffffffffffffffffffffffffffffff16145b6114c0576040517f08c379a00000000000000000000000000000000000000000000000000000000081526004018080602001828103825260208152602001807f4e6f742073656c6c6572206f7220617070726f766564206e792073656c6c657281525060200191505060405180910390fd5b6003548610611537576040517f08c379a00000000000000000000000000000000000000000000000000000000081526004018080602001828103825260168152602001807f4974656d54797065206f7574206f6620626f756e64730000000000000000000081525060200191505060405180910390fd5b600460008781526020019081526020016000205485106115bf576040517f08c379a00000000000000000000000000000000000000000000000000000000081526004018080602001828103825260128152602001807f4974656d206f7574206f6620626f756e6473000000000000000000000000000081525060200191505060405180910390fd5b600060018111156115cc57fe5b60056000888152602001908152602001600020600087815260200190815260200160002060000160009054906101000a900460ff16600181111561160c57fe5b1461167f576040517f08c379a00000000000000000000000000000000000000000000000000000000081526004018080602001828103825260108152602001807f4e6f7420696e207965732073746174650000000000000000000000000000000081525060200191505060405180910390fd5b600160056000888152602001908152602001600020600087815260200190815260200160002060000160006101000a81548160ff021916908360018111156116c357fe5b02179055506001935050505092915050565b6000600354905090565b60008060009054906101000a900473ffffffffffffffffffffffffffffffffffffffff1673ffffffffffffffffffffffffffffffffffffffff163373ffffffffffffffffffffffffffffffffffffffff16146117a3576040517f08c379a00000000000000000000000000000000000000000000000000000000081526004018080602001828103825260098152602001807f6e6f74206f776e6572000000000000000000000000000000000000000000000081525060200191505060405180910390fd5b60018060008473ffffffffffffffffffffffffffffffffffffffff1673ffffffffffffffffffffffffffffffffffffffff16815260200190815260200160002060006101000a81548160ff02191690831515021790555060019050919050565b60008073ffffffffffffffffffffffffffffffffffffffff16600660008473ffffffffffffffffffffffffffffffffffffffff1673ffffffffffffffffffffffffffffffffffffffff16815260200190815260200160002060009054906101000a900473ffffffffffffffffffffffffffffffffffffffff1673ffffffffffffffffffffffffffffffffffffffff1614611905576040517f08c379a00000000000000000000000000000000000000000000000000000000081526004018080602001828103825260108152602001807f4e6f74207a65726f20616464726573730000000000000000000000000000000081525060200191505060405180910390fd5b33600660008473ffffffffffffffffffffffffffffffffffffffff1673ffffffffffffffffffffffffffffffffffffffff16815260200190815260200160002060006101000a81548173ffffffffffffffffffffffffffffffffffffffff021916908373ffffffffffffffffffffffffffffffffffffffff16021790555060019050919050565b60606003548310611a05576040517f08c379a00000000000000000000000000000000000000000000000000000000081526004018080602001828103825260168152602001807f4974656d54797065206f7574206f6620626f756e64730000000000000000000081525060200191505060405180910390fd5b60046000848152602001908152602001600020548210611a8d576040517f08c379a00000000000000000000000000000000000000000000000000000000081526004018080602001828103825260128152602001807f4974656d206f7574206f6620626f756e6473000000000000000000000000000081525060200191505060405180910390fd5b6005600084815260200190815260200160002060008381526020019081526020016000206001018054600181600116156101000203166002900480601f016020809104026020016040519081016040528092919081815260200182805460018160011615610100020316600290048015611b485780601f10611b1d57610100808354040283529160200191611b48565b820191906000526020600020905b815481529060010190602001808311611b2b57829003601f168201915b5050505050905092915050565b828054600181600116156101000203166002900490600052602060002090601f016020900481019282601f10611b9657803560ff1916838001178555611bc4565b82800160010185558215611bc4579182015b82811115611bc3578235825591602001919060010190611ba8565b5b509050611bd19190611bd5565b5090565b5b80821115611bee576000816000905550600101611bd6565b509056fea264697066735822122004fe3ccdeb81e5bae7de39b711aaefe635cb917fcc1850875ec51107fbee022c64736f6c63430007030033",
  "immutableReferences": {},
  "source": "pragma solidity 0.7.3;\r\n\r\ncontract Inventory {\r\n\r\n\tenum ItemState {yes, no}\r\n\r\n\tstruct Item {\r\n\t\tItemState state;\r\n\t\taddress seller;\r\n\t\tstring description;\r\n\t\tuint price;\r\n\t}\r\n\r\n\taddress owner;\r\n\tmapping(address => bool) verifiedSellers;\r\n\t\r\n\tmapping(uint => string) typeDescription;\r\n\tuint typeLength;\r\n\t\r\n\tmapping(uint => uint) itemCounts;\r\n\tmapping(uint => mapping(uint => Item)) items;\r\n\t\r\n\tmapping(address => address) behaveAsSeller;\r\n\t\r\n\taddress currency;\r\n\r\n\tconstructor(address _currency) {\r\n\t\towner = msg.sender;\r\n\t\tcurrency = _currency;\r\n\t}\r\n\r\n\tmodifier onlyOwner {\r\n\t\trequire(msg.sender == owner, \"not owner\");\r\n\t\t_;\r\n\t}\r\n\t\r\n\tmodifier canProgress(uint _itemType, uint _item) {\r\n\t    address seller = items[_itemType][_item].seller;\r\n\t    require(seller == msg.sender || seller == behaveAsSeller[msg.sender], \"Not seller or approved ny seller\");\r\n        _;\r\n\t}\r\n\t\r\n\tfunction approve(address _other) public returns(bool){\r\n\t    require(behaveAsSeller[_other] == address(0), \"Not zero address\");\r\n\t    behaveAsSeller[_other] = msg.sender;\r\n        return true;\r\n\t}\r\n\r\n\t// Create a new ItemType\r\n\tfunction createItemType(string calldata _description) public returns(uint){\r\n\t    typeDescription[typeLength] = _description;\r\n\t    typeLength++;\r\n\t    return typeLength - 1;\r\n\t}\r\n\r\n\tfunction createItem(uint _itemType, string calldata _description, uint _price) public returns(uint){\r\n\t    require(_itemType < typeLength, \"ItemType out of bounds\");\r\n\t    uint index = itemCounts[_itemType]; \r\n        items[_itemType][index].seller = msg.sender;\r\n        items[_itemType][index].description = _description;\r\n\t\titems[_itemType][index].price = _price;\r\n        itemCounts[_itemType]++;\r\n\t\treturn index;\r\n\t}\r\n\r\n\t// Internal function that should be called from within the REA smart contract.\r\n\tfunction progressItemState(uint _itemType, uint _item) public canProgress(_itemType, _item) returns(bool){\r\n\t    require(_itemType < typeLength, \"ItemType out of bounds\");\r\n\t    require(_item < itemCounts[_itemType], \"Item out of bounds\");\r\n\t    require(items[_itemType][_item].state == ItemState.yes, \"Not in yes state\");\r\n\t    items[_itemType][_item].state = ItemState.no;\r\n\t\treturn true;\r\n\t}\r\n\r\n\t// Getters //\r\n\r\n\tfunction getItemTypesLength() public view returns(uint){\r\n\t\treturn typeLength;\r\n\t}\r\n\t\r\n\tfunction getTypeDescription(uint _itemType) public view returns(string memory){\r\n\t    require(_itemType < typeLength, \"ItemType out of bounds\");\r\n\t    return typeDescription[_itemType];\r\n\t}\r\n    \r\n\tfunction getItemsLength(uint _itemType) public view returns(uint){\r\n\t    require(_itemType < typeLength, \"ItemType out of bounds\");\r\n\t\treturn itemCounts[_itemType];\r\n\t}\r\n\r\n\tfunction getItemState(uint _itemType, uint _item) public view returns(ItemState){\r\n\t    require(_itemType < typeLength, \"ItemType out of bounds\");\r\n\t    require(_item < itemCounts[_itemType], \"Item out of bounds\");\r\n\t\treturn items[_itemType][_item].state;\r\n\t}\r\n\r\n\tfunction getItemSeller(uint _itemType, uint _item) public view returns(address) {\r\n\t    require(_itemType < typeLength, \"ItemType out of bounds\");\r\n\t    require(_item < itemCounts[_itemType], \"Item out of bounds\");\r\n\t\treturn items[_itemType][_item].seller;\r\n\t}\r\n\r\n\tfunction getItemDescription(uint _itemType, uint _item) public view returns(string memory) {\r\n\t    require(_itemType < typeLength, \"ItemType out of bounds\");\r\n\t    require(_item < itemCounts[_itemType], \"Item out of bounds\");\r\n\t\treturn items[_itemType][_item].description;\r\n\t}\r\n\r\n\tfunction getItemPrice(uint _itemType, uint _item) public view returns(uint) {\r\n\t    require(_itemType < typeLength, \"ItemType out of bounds\");\r\n\t    require(_item < itemCounts[_itemType], \"Item out of bounds\");\r\n\t\treturn items[_itemType][_item].price;\r\n\t}\r\n\t\r\n\tfunction getItem(uint _itemType, uint _item) public view returns(ItemState, address, string memory, uint){\r\n\t    require(_itemType < typeLength, \"ItemType out of bounds\");\r\n\t    require(_item < itemCounts[_itemType], \"Item out of bounds\");\r\n\t    Item storage item = items[_itemType][_item];\r\n        return (item.state, item.seller, item.description, item.price);\r\n\t}\r\n\r\n\r\n\t// Adding and removing sellers //\r\n\r\n\tfunction isVerified(address _seller) public view returns(bool){\r\n\t\treturn verifiedSellers[_seller];\r\n\t}\r\n\r\n\tfunction verifySeller(address _seller) public onlyOwner returns(bool){\r\n\t\tverifiedSellers[_seller] = true;\r\n\t\treturn true;\r\n\t}\r\n\r\n\tfunction unverifySeller(address _seller) public onlyOwner returns(bool){\r\n\t\tverifiedSellers[_seller] = false;\r\n\t\treturn true;\r\n\t}\r\n\r\n\t// Get service\r\n\tfunction getCurrencyAddress() public view returns(address){\r\n\t\treturn currency;\r\n\t}\r\n\r\n\tfunction getTaxAuthority() public view returns(address) {\r\n\t\treturn owner;\r\n\t}\r\n\r\n}",
  "sourcePath": "C:\\Users\\lherskind\\OneDrive - Deloitte (O365D)\\Documents\\GitHub\\REABlockchain\\solidity\\contracts\\Inventory.sol",
  "compiler": {
    "name": "solc",
    "version": "0.7.3+commit.9bfce1f6.Emscripten.clang"
  },
  "schemaVersion": "3.3.1",
  "updatedAt": "2020-11-18T10:03:33.385Z",
  "devdoc": {
    "kind": "dev",
    "methods": {},
    "version": 1
  },
  "userdoc": {
    "kind": "user",
    "methods": {},
    "version": 1
  }
}