{
  "contractName": "REA_Pre_Inventory_Minimial",
  "abi": [
    {
      "inputs": [
        {
          "internalType": "address",
          "name": "_inventory",
          "type": "address"
        },
        {
          "internalType": "address",
          "name": "_seller",
          "type": "address"
        }
      ],
      "stateMutability": "nonpayable",
      "type": "constructor"
    },
    {
      "inputs": [],
      "name": "Business_Process_Detail_state",
      "outputs": [
        {
          "internalType": "enum REA_Pre_Inventory_Minimial.Business_Process_Detail",
          "name": "",
          "type": "uint8"
        }
      ],
      "stateMutability": "view",
      "type": "function"
    },
    {
      "inputs": [],
      "name": "Business_Process_Overview_state",
      "outputs": [
        {
          "internalType": "enum REA_Pre_Inventory_Minimial.Business_Process_Overview",
          "name": "",
          "type": "uint8"
        }
      ],
      "stateMutability": "view",
      "type": "function"
    },
    {
      "inputs": [
        {
          "internalType": "uint256",
          "name": "",
          "type": "uint256"
        }
      ],
      "name": "orderItemTypes",
      "outputs": [
        {
          "internalType": "uint256",
          "name": "",
          "type": "uint256"
        }
      ],
      "stateMutability": "view",
      "type": "function"
    },
    {
      "inputs": [
        {
          "internalType": "uint256",
          "name": "",
          "type": "uint256"
        }
      ],
      "name": "orderItems",
      "outputs": [
        {
          "internalType": "uint256",
          "name": "",
          "type": "uint256"
        }
      ],
      "stateMutability": "view",
      "type": "function"
    },
    {
      "inputs": [],
      "name": "transactionAmount",
      "outputs": [
        {
          "internalType": "uint256",
          "name": "",
          "type": "uint256"
        }
      ],
      "stateMutability": "view",
      "type": "function"
    },
    {
      "inputs": [],
      "name": "vatAmount",
      "outputs": [
        {
          "internalType": "uint256",
          "name": "",
          "type": "uint256"
        }
      ],
      "stateMutability": "view",
      "type": "function"
    },
    {
      "inputs": [],
      "name": "request_catalogue",
      "outputs": [],
      "stateMutability": "nonpayable",
      "type": "function"
    },
    {
      "inputs": [],
      "name": "non_committal_order",
      "outputs": [],
      "stateMutability": "nonpayable",
      "type": "function"
    },
    {
      "inputs": [],
      "name": "abandon",
      "outputs": [],
      "stateMutability": "nonpayable",
      "type": "function"
    },
    {
      "inputs": [
        {
          "internalType": "uint256[]",
          "name": "_itemTypes",
          "type": "uint256[]"
        }
      ],
      "name": "order",
      "outputs": [],
      "stateMutability": "nonpayable",
      "type": "function"
    },
    {
      "inputs": [
        {
          "internalType": "uint256[]",
          "name": "_orderItems",
          "type": "uint256[]"
        }
      ],
      "name": "response_simple_accept",
      "outputs": [],
      "stateMutability": "nonpayable",
      "type": "function"
    },
    {
      "inputs": [],
      "name": "invoice",
      "outputs": [],
      "stateMutability": "nonpayable",
      "type": "function"
    },
    {
      "inputs": [],
      "name": "catalogue",
      "outputs": [],
      "stateMutability": "nonpayable",
      "type": "function"
    },
    {
      "inputs": [],
      "name": "availability_report",
      "outputs": [],
      "stateMutability": "nonpayable",
      "type": "function"
    },
    {
      "inputs": [],
      "name": "response_counter",
      "outputs": [],
      "stateMutability": "nonpayable",
      "type": "function"
    },
    {
      "inputs": [],
      "name": "response_simple_reject",
      "outputs": [],
      "stateMutability": "nonpayable",
      "type": "function"
    },
    {
      "inputs": [],
      "name": "remittance_advice",
      "outputs": [],
      "stateMutability": "nonpayable",
      "type": "function"
    },
    {
      "inputs": [],
      "name": "computeSumAndVat",
      "outputs": [
        {
          "internalType": "uint256",
          "name": "sum",
          "type": "uint256"
        },
        {
          "internalType": "uint256",
          "name": "vat",
          "type": "uint256"
        }
      ],
      "stateMutability": "view",
      "type": "function"
    },
    {
      "inputs": [],
      "name": "despatch_advice",
      "outputs": [],
      "stateMutability": "nonpayable",
      "type": "function"
    },
    {
      "inputs": [],
      "name": "receipt_advice",
      "outputs": [],
      "stateMutability": "nonpayable",
      "type": "function"
    }
  ],
  "bytecode": "0x608060405234801561001057600080fd5b50604051612e46380380612e468339818101604052604081101561003357600080fd5b81019080805190602001909291908051906020019092919050505081600060026101000a81548173ffffffffffffffffffffffffffffffffffffffff021916908373ffffffffffffffffffffffffffffffffffffffff16021790555080600360006101000a81548173ffffffffffffffffffffffffffffffffffffffff021916908373ffffffffffffffffffffffffffffffffffffffff16021790555033600460006101000a81548173ffffffffffffffffffffffffffffffffffffffff021916908373ffffffffffffffffffffffffffffffffffffffff1602179055505050612d24806101226000396000f3fe608060405234801561001057600080fd5b506004361061012c5760003560e01c8063953e046e116100ad578063ae48908211610071578063ae489082146102f3578063b3d6bb5c14610335578063d52c4e9914610377578063d942bffa146103a0578063db2f878a146103be5761012c565b8063953e046e1461023357806396fe48361461023d5780639860fe67146102b65780639caa094a146102c0578063ac45cf2c146102ca5761012c565b806356533b05116100f457806356533b051461019257806361b1eb8a1461019c5780638831883414610215578063895ae2791461021f5780638c65c9c8146102295761012c565b80630995f6801461013157806324e4013a1461015657806325fef32a146101605780633cdecef01461016a5780634ed9bb2714610174575b600080fd5b6101396103c8565b604051808381526020018281526020019250505060405180910390f35b61015e610517565b005b610168610684565b005b610172610896565b005b61017c610dc4565b6040518082815260200191505060405180910390f35b61019a610dca565b005b610213600480360360208110156101b257600080fd5b81019080803590602001906401000000008111156101cf57600080fd5b8201836020820111156101e157600080fd5b8035906020019184602083028401116401000000008311171561020357600080fd5b9091929391929390505050610f37565b005b61021d6111da565b005b61022761164e565b005b610231611860565b005b61023b611a70565b005b6102b46004803603602081101561025357600080fd5b810190808035906020019064010000000081111561027057600080fd5b82018360208201111561028257600080fd5b803590602001918460208302840111640100000000831117156102a457600080fd5b9091929391929390505050611bdd565b005b6102be611e61565b005b6102c8612073565b005b6102d26121e0565b6040518082600c8111156102e257fe5b815260200191505060405180910390f35b61031f6004803603602081101561030957600080fd5b81019080803590602001909291905050506121f3565b6040518082815260200191505060405180910390f35b6103616004803603602081101561034b57600080fd5b8101908080359060200190929190505050612214565b6040518082815260200191505060405180910390f35b61037f612235565b6040518082600581111561038f57fe5b815260200191505060405180910390f35b6103a8612246565b6040518082815260200191505060405180910390f35b6103c661224c565b005b6000806000915060005b6002805490508110156104e95760008060029054906101000a900473ffffffffffffffffffffffffffffffffffffffff1673ffffffffffffffffffffffffffffffffffffffff16637931a6666001848154811061042b57fe5b90600052602060002001546002858154811061044357fe5b90600052602060002001546040518363ffffffff1660e01b8152600401808381526020018281526020019250505060206040518083038186803b15801561048957600080fd5b505afa15801561049d573d6000803e3d6000fd5b505050506040513d60208110156104b357600080fd5b810190808051906020019092919050505090506104d9818561252f90919063ffffffff16565b93505080806001019150506103d2565b5061051160646105036019856125b790919063ffffffff16565b61263d90919063ffffffff16565b90509091565b600360009054906101000a900473ffffffffffffffffffffffffffffffffffffffff1673ffffffffffffffffffffffffffffffffffffffff163373ffffffffffffffffffffffffffffffffffffffff16146105da576040517f08c379a000000000000000000000000000000000000000000000000000000000815260040180806020018281038252600a8152602001807f4e6f742073656c6c65720000000000000000000000000000000000000000000081525060200191505060405180910390fd5b60006001600c8111156105e957fe5b600060019054906101000a900460ff16600c81111561060457fe5b1490508061065d576040517f08c379a000000000000000000000000000000000000000000000000000000000815260040180806020018281038252603b815260200180612935603b913960400191505060405180910390fd5b6002600060016101000a81548160ff0219169083600c81111561067c57fe5b021790555050565b600360009054906101000a900473ffffffffffffffffffffffffffffffffffffffff1673ffffffffffffffffffffffffffffffffffffffff163373ffffffffffffffffffffffffffffffffffffffff1614610747576040517f08c379a000000000000000000000000000000000000000000000000000000000815260040180806020018281038252600a8152602001807f4e6f742073656c6c65720000000000000000000000000000000000000000000081525060200191505060405180910390fd5b60006003600581111561075657fe5b60008054906101000a900460ff16600581111561076f57fe5b149050806107c8576040517f08c379a000000000000000000000000000000000000000000000000000000000815260040180806020018281038252604a8152602001806128b4604a913960600191505060405180910390fd5b60006005600c8111156107d757fe5b600060019054906101000a900460ff16600c8111156107f257fe5b1490508061084b576040517f08c379a0000000000000000000000000000000000000000000000000000000008152600401808060200182810382526048815260200180612ba16048913960600191505060405180910390fd5b60056000806101000a81548160ff0219169083600581111561086957fe5b0217905550600b600060016101000a81548160ff0219169083600c81111561088d57fe5b02179055505050565b600460009054906101000a900473ffffffffffffffffffffffffffffffffffffffff1673ffffffffffffffffffffffffffffffffffffffff163373ffffffffffffffffffffffffffffffffffffffff1614610959576040517f08c379a00000000000000000000000000000000000000000000000000000000081526004018080602001828103825260098152602001807f4e6f74206275796572000000000000000000000000000000000000000000000081525060200191505060405180910390fd5b60006007600c81111561096857fe5b600060019054906101000a900460ff16600c81111561098357fe5b149050806109dc576040517f08c379a00000000000000000000000000000000000000000000000000000000081526004018080602001828103825260438152602001806128716043913960600191505060405180910390fd5b6000806109e76103c8565b8092508193505050600060029054906101000a900473ffffffffffffffffffffffffffffffffffffffff1673ffffffffffffffffffffffffffffffffffffffff1663bfe0c27e6040518163ffffffff1660e01b815260040160206040518083038186803b158015610a5757600080fd5b505afa158015610a6b573d6000803e3d6000fd5b505050506040513d6020811015610a8157600080fd5b810190808051906020019092919050505073ffffffffffffffffffffffffffffffffffffffff166323b872dd33600360009054906101000a900473ffffffffffffffffffffffffffffffffffffffff16856040518463ffffffff1660e01b8152600401808473ffffffffffffffffffffffffffffffffffffffff1681526020018373ffffffffffffffffffffffffffffffffffffffff1681526020018281526020019350505050602060405180830381600087803b158015610b4257600080fd5b505af1158015610b56573d6000803e3d6000fd5b505050506040513d6020811015610b6c57600080fd5b810190808051906020019092919050505050600060029054906101000a900473ffffffffffffffffffffffffffffffffffffffff1673ffffffffffffffffffffffffffffffffffffffff1663bfe0c27e6040518163ffffffff1660e01b815260040160206040518083038186803b158015610be657600080fd5b505afa158015610bfa573d6000803e3d6000fd5b505050506040513d6020811015610c1057600080fd5b810190808051906020019092919050505073ffffffffffffffffffffffffffffffffffffffff166323b872dd33600060029054906101000a900473ffffffffffffffffffffffffffffffffffffffff1673ffffffffffffffffffffffffffffffffffffffff1663264c09956040518163ffffffff1660e01b815260040160206040518083038186803b158015610ca557600080fd5b505afa158015610cb9573d6000803e3d6000fd5b505050506040513d6020811015610ccf57600080fd5b8101908080519060200190929190505050846040518463ffffffff1660e01b8152600401808473ffffffffffffffffffffffffffffffffffffffff1681526020018373ffffffffffffffffffffffffffffffffffffffff1681526020018281526020019350505050602060405180830381600087803b158015610d5157600080fd5b505af1158015610d65573d6000803e3d6000fd5b505050506040513d6020811015610d7b57600080fd5b81019080805190602001909291905050505080600581905550816006819055506008600060016101000a81548160ff0219169083600c811115610dba57fe5b0217905550505050565b60055481565b600460009054906101000a900473ffffffffffffffffffffffffffffffffffffffff1673ffffffffffffffffffffffffffffffffffffffff163373ffffffffffffffffffffffffffffffffffffffff1614610e8d576040517f08c379a00000000000000000000000000000000000000000000000000000000081526004018080602001828103825260098152602001807f4e6f74206275796572000000000000000000000000000000000000000000000081525060200191505060405180910390fd5b60006009600c811115610e9c57fe5b600060019054906101000a900460ff16600c811115610eb757fe5b14905080610f10576040517f08c379a0000000000000000000000000000000000000000000000000000000008152600401808060200182810382526040815260200180612c336040913960400191505060405180910390fd5b600a600060016101000a81548160ff0219169083600c811115610f2f57fe5b021790555050565b600360009054906101000a900473ffffffffffffffffffffffffffffffffffffffff1673ffffffffffffffffffffffffffffffffffffffff163373ffffffffffffffffffffffffffffffffffffffff1614610ffa576040517f08c379a000000000000000000000000000000000000000000000000000000000815260040180806020018281038252600a8152602001807f4e6f742073656c6c65720000000000000000000000000000000000000000000081525060200191505060405180910390fd5b60006003600581111561100957fe5b60008054906101000a900460ff16600581111561102257fe5b1490508061107b576040517f08c379a000000000000000000000000000000000000000000000000000000000815260040180806020018281038252604a815260200180612be9604a913960600191505060405180910390fd5b60006005600c81111561108a57fe5b600060019054906101000a900460ff16600c8111156110a557fe5b149050806110fe576040517f08c379a0000000000000000000000000000000000000000000000000000000008152600401808060200182810382526048815260200180612b596048913960600191505060405180910390fd5b838390506001805490501461117b576040517f08c379a00000000000000000000000000000000000000000000000000000000081526004018080602001828103825260148152602001807f4c656e6774687320646f206e6f74206d6174636800000000000000000000000081525060200191505060405180910390fd5b83836002919061118c92919061274d565b5060046000806101000a81548160ff021916908360058111156111ab57fe5b02179055506007600060016101000a81548160ff0219169083600c8111156111cf57fe5b021790555050505050565b600460009054906101000a900473ffffffffffffffffffffffffffffffffffffffff1673ffffffffffffffffffffffffffffffffffffffff163373ffffffffffffffffffffffffffffffffffffffff1614806112835750600360009054906101000a900473ffffffffffffffffffffffffffffffffffffffff1673ffffffffffffffffffffffffffffffffffffffff163373ffffffffffffffffffffffffffffffffffffffff16145b6112f5576040517f08c379a00000000000000000000000000000000000000000000000000000000081526004018080602001828103825260138152602001807f4e6f74206275796572206f722073656c6c65720000000000000000000000000081525060200191505060405180910390fd5b60006001600581111561130457fe5b60008054906101000a900460ff16600581111561131d57fe5b148061134c57506002600581111561133157fe5b60008054906101000a900460ff16600581111561134a57fe5b145b8061137a57506003600581111561135f57fe5b60008054906101000a900460ff16600581111561137857fe5b145b806113a857506004600581111561138d57fe5b60008054906101000a900460ff1660058111156113a657fe5b145b905080611400576040517f08c379a000000000000000000000000000000000000000000000000000000000815260040180806020018281038252603b815260200180612970603b913960400191505060405180910390fd5b60006001600c81111561140f57fe5b600060019054906101000a900460ff16600c81111561142a57fe5b148061145b57506002600c81111561143e57fe5b600060019054906101000a900460ff16600c81111561145957fe5b145b8061148b57506003600c81111561146e57fe5b600060019054906101000a900460ff16600c81111561148957fe5b145b806114bb57506004600c81111561149e57fe5b600060019054906101000a900460ff16600c8111156114b957fe5b145b806114eb57506006600c8111156114ce57fe5b600060019054906101000a900460ff16600c8111156114e957fe5b145b8061151b57506007600c8111156114fe57fe5b600060019054906101000a900460ff16600c81111561151957fe5b145b8061154b57506008600c81111561152e57fe5b600060019054906101000a900460ff16600c81111561154957fe5b145b8061157b57506009600c81111561155e57fe5b600060019054906101000a900460ff16600c81111561157957fe5b145b806115ab5750600a600c81111561158e57fe5b600060019054906101000a900460ff16600c8111156115a957fe5b145b905080611603576040517f08c379a00000000000000000000000000000000000000000000000000000000081526004018080602001828103825260398152602001806129ab6039913960400191505060405180910390fd5b60056000806101000a81548160ff0219169083600581111561162157fe5b0217905550600b600060016101000a81548160ff0219169083600c81111561164557fe5b02179055505050565b600360009054906101000a900473ffffffffffffffffffffffffffffffffffffffff1673ffffffffffffffffffffffffffffffffffffffff163373ffffffffffffffffffffffffffffffffffffffff1614611711576040517f08c379a000000000000000000000000000000000000000000000000000000000815260040180806020018281038252600a8152602001807f4e6f742073656c6c65720000000000000000000000000000000000000000000081525060200191505060405180910390fd5b60006004600581111561172057fe5b60008054906101000a900460ff16600581111561173957fe5b14905080611792576040517f08c379a000000000000000000000000000000000000000000000000000000000815260040180806020018281038252603b815260200180612836603b913960400191505060405180910390fd5b6000600a600c8111156117a157fe5b600060019054906101000a900460ff16600c8111156117bc57fe5b14905080611815576040517f08c379a00000000000000000000000000000000000000000000000000000000081526004018080602001828103825260398152602001806127fd6039913960400191505060405180910390fd5b60056000806101000a81548160ff0219169083600581111561183357fe5b0217905550600c600060016101000a81548160ff0219169083600c81111561185757fe5b02179055505050565b600460009054906101000a900473ffffffffffffffffffffffffffffffffffffffff1673ffffffffffffffffffffffffffffffffffffffff163373ffffffffffffffffffffffffffffffffffffffff1614611923576040517f08c379a00000000000000000000000000000000000000000000000000000000081526004018080602001828103825260098152602001807f4e6f74206275796572000000000000000000000000000000000000000000000081525060200191505060405180910390fd5b600080600581111561193157fe5b60008054906101000a900460ff16600581111561194a57fe5b149050806119a3576040517f08c379a0000000000000000000000000000000000000000000000000000000008152600401808060200182810382526045815260200180612a8d6045913960600191505060405180910390fd5b600080600c8111156119b157fe5b600060019054906101000a900460ff16600c8111156119cc57fe5b14905080611a25576040517f08c379a0000000000000000000000000000000000000000000000000000000008152600401808060200182810382526043815260200180612cac6043913960600191505060405180910390fd5b60016000806101000a81548160ff02191690836005811115611a4357fe5b02179055506001600060016101000a81548160ff0219169083600c811115611a6757fe5b02179055505050565b600360009054906101000a900473ffffffffffffffffffffffffffffffffffffffff1673ffffffffffffffffffffffffffffffffffffffff163373ffffffffffffffffffffffffffffffffffffffff1614611b33576040517f08c379a000000000000000000000000000000000000000000000000000000000815260040180806020018281038252600a8152602001807f4e6f742073656c6c65720000000000000000000000000000000000000000000081525060200191505060405180910390fd5b60006003600c811115611b4257fe5b600060019054906101000a900460ff16600c811115611b5d57fe5b14905080611bb6576040517f08c379a0000000000000000000000000000000000000000000000000000000008152600401808060200182810382526045815260200180612b146045913960600191505060405180910390fd5b6004600060016101000a81548160ff0219169083600c811115611bd557fe5b021790555050565b600460009054906101000a900473ffffffffffffffffffffffffffffffffffffffff1673ffffffffffffffffffffffffffffffffffffffff163373ffffffffffffffffffffffffffffffffffffffff1614611ca0576040517f08c379a00000000000000000000000000000000000000000000000000000000081526004018080602001828103825260098152602001807f4e6f74206275796572000000000000000000000000000000000000000000000081525060200191505060405180910390fd5b600060026005811115611caf57fe5b60008054906101000a900460ff166005811115611cc857fe5b1480611cf7575060036005811115611cdc57fe5b60008054906101000a900460ff166005811115611cf557fe5b145b905080611d4f576040517f08c379a0000000000000000000000000000000000000000000000000000000008152600401808060200182810382526039815260200180612c736039913960400191505060405180910390fd5b60006004600c811115611d5e57fe5b600060019054906101000a900460ff16600c811115611d7957fe5b1480611daa57506006600c811115611d8d57fe5b600060019054906101000a900460ff16600c811115611da857fe5b145b905080611e02576040517f08c379a00000000000000000000000000000000000000000000000000000000081526004018080602001828103825260378152602001806128fe6037913960400191505060405180910390fd5b838360019190611e1392919061274d565b5060036000806101000a81548160ff02191690836005811115611e3257fe5b02179055506005600060016101000a81548160ff0219169083600c811115611e5657fe5b021790555050505050565b600460009054906101000a900473ffffffffffffffffffffffffffffffffffffffff1673ffffffffffffffffffffffffffffffffffffffff163373ffffffffffffffffffffffffffffffffffffffff1614611f24576040517f08c379a00000000000000000000000000000000000000000000000000000000081526004018080602001828103825260098152602001807f4e6f74206275796572000000000000000000000000000000000000000000000081525060200191505060405180910390fd5b600060016005811115611f3357fe5b60008054906101000a900460ff166005811115611f4c57fe5b14905080611fa5576040517f08c379a0000000000000000000000000000000000000000000000000000000008152600401808060200182810382526047815260200180612a256047913960600191505060405180910390fd5b60006002600c811115611fb457fe5b600060019054906101000a900460ff16600c811115611fcf57fe5b14905080612028576040517f08c379a00000000000000000000000000000000000000000000000000000000081526004018080602001828103825260458152602001806127b86045913960600191505060405180910390fd5b60026000806101000a81548160ff0219169083600581111561204657fe5b02179055506003600060016101000a81548160ff0219169083600c81111561206a57fe5b02179055505050565b600360009054906101000a900473ffffffffffffffffffffffffffffffffffffffff1673ffffffffffffffffffffffffffffffffffffffff163373ffffffffffffffffffffffffffffffffffffffff1614612136576040517f08c379a000000000000000000000000000000000000000000000000000000000815260040180806020018281038252600a8152602001807f4e6f742073656c6c65720000000000000000000000000000000000000000000081525060200191505060405180910390fd5b60006005600c81111561214557fe5b600060019054906101000a900460ff16600c81111561216057fe5b149050806121b9576040517f08c379a0000000000000000000000000000000000000000000000000000000008152600401808060200182810382526042815260200180612ad26042913960600191505060405180910390fd5b6006600060016101000a81548160ff0219169083600c8111156121d857fe5b021790555050565b600060019054906101000a900460ff1681565b6002818154811061220057fe5b906000526020600020016000915090505481565b6001818154811061222157fe5b906000526020600020016000915090505481565b60008054906101000a900460ff1681565b60065481565b600360009054906101000a900473ffffffffffffffffffffffffffffffffffffffff1673ffffffffffffffffffffffffffffffffffffffff163373ffffffffffffffffffffffffffffffffffffffff161461230f576040517f08c379a000000000000000000000000000000000000000000000000000000000815260040180806020018281038252600a8152602001807f4e6f742073656c6c65720000000000000000000000000000000000000000000081525060200191505060405180910390fd5b60006008600c81111561231e57fe5b600060019054906101000a900460ff16600c81111561233957fe5b14905080612392576040517f08c379a00000000000000000000000000000000000000000000000000000000081526004018080602001828103825260418152602001806129e46041913960600191505060405180910390fd5b60005b60018054905081101561250757600060029054906101000a900473ffffffffffffffffffffffffffffffffffffffff1673ffffffffffffffffffffffffffffffffffffffff1663ca92a0dc600183815481106123ed57fe5b90600052602060002001546002848154811061240557fe5b90600052602060002001546040518363ffffffff1660e01b81526004018083815260200182815260200192505050602060405180830381600087803b15801561244d57600080fd5b505af1158015612461573d6000803e3d6000fd5b505050506040513d602081101561247757600080fd5b81019080805190602001909291905050506124fa576040517f08c379a00000000000000000000000000000000000000000000000000000000081526004018080602001828103825260178152602001807f436f756c64206e6f742070726f6772657373206974656d00000000000000000081525060200191505060405180910390fd5b8080600101915050612395565b506009600060016101000a81548160ff0219169083600c81111561252757fe5b021790555050565b6000808284019050838110156125ad576040517f08c379a000000000000000000000000000000000000000000000000000000000815260040180806020018281038252601b8152602001807f536166654d6174683a206164646974696f6e206f766572666c6f77000000000081525060200191505060405180910390fd5b8091505092915050565b6000808314156125ca5760009050612637565b60008284029050828482816125db57fe5b0414612632576040517f08c379a0000000000000000000000000000000000000000000000000000000008152600401808060200182810382526021815260200180612a6c6021913960400191505060405180910390fd5b809150505b92915050565b600061267f83836040518060400160405280601a81526020017f536166654d6174683a206469766973696f6e206279207a65726f000000000000815250612687565b905092915050565b60008083118290612733576040517f08c379a00000000000000000000000000000000000000000000000000000000081526004018080602001828103825283818151815260200191508051906020019080838360005b838110156126f85780820151818401526020810190506126dd565b50505050905090810190601f1680156127255780820380516001836020036101000a031916815260200191505b509250505060405180910390fd5b50600083858161273f57fe5b049050809150509392505050565b828054828255906000526020600020908101928215612789579160200282015b8281111561278857823582559160200191906001019061276d565b5b509050612796919061279a565b5090565b5b808211156127b357600081600090555060010161279b565b509056fe427573696e6573732050726f636573732044657461696c206e6f74207361746973666965642c2063616e6e6f742072756e206e6f6e5f636f6d6d697474616c5f6f72646572427573696e6573732050726f636573732044657461696c206e6f74207361746973666965642c2063616e6e6f742072756e20696e766f696365427573696e6573732050726f63657373204f76657276696577206e6f74207361746973666965642c2063616e6e6f742072756e20696e766f696365427573696e6573732050726f636573732044657461696c206e6f74207361746973666965642c2063616e6e6f742072756e2072656d697474616e63655f616476696365427573696e6573732050726f63657373204f76657276696577206e6f74207361746973666965642c2063616e6e6f742072756e20726573706f6e73655f73696d706c655f72656a656374427573696e6573732050726f636573732044657461696c206e6f74207361746973666965642c2063616e6e6f742072756e206f72646572427573696e6573732050726f636573732044657461696c206e6f74207361746973666965642c2063616e6e6f742072756e20636174616c6f677565427573696e6573732050726f63657373204f76657276696577206e6f74207361746973666965642c2063616e6e6f742072756e206162616e646f6e427573696e6573732050726f636573732044657461696c206e6f74207361746973666965642c2063616e6e6f742072756e206162616e646f6e427573696e6573732050726f636573732044657461696c206e6f74207361746973666965642c2063616e6e6f742072756e2064657370617463685f616476696365427573696e6573732050726f63657373204f76657276696577206e6f74207361746973666965642c2063616e6e6f742072756e206e6f6e5f636f6d6d697474616c5f6f72646572536166654d6174683a206d756c7469706c69636174696f6e206f766572666c6f77427573696e6573732050726f63657373204f76657276696577206e6f74207361746973666965642c2063616e6e6f742072756e20726571756573745f636174616c6f677565427573696e6573732050726f636573732044657461696c206e6f74207361746973666965642c2063616e6e6f742072756e20726573706f6e73655f636f756e746572427573696e6573732050726f636573732044657461696c206e6f74207361746973666965642c2063616e6e6f742072756e20617661696c6162696c6974795f7265706f7274427573696e6573732050726f636573732044657461696c206e6f74207361746973666965642c2063616e6e6f742072756e20726573706f6e73655f73696d706c655f616363657074427573696e6573732050726f636573732044657461696c206e6f74207361746973666965642c2063616e6e6f742072756e20726573706f6e73655f73696d706c655f72656a656374427573696e6573732050726f63657373204f76657276696577206e6f74207361746973666965642c2063616e6e6f742072756e20726573706f6e73655f73696d706c655f616363657074427573696e6573732050726f636573732044657461696c206e6f74207361746973666965642c2063616e6e6f742072756e20726563656970745f616476696365427573696e6573732050726f63657373204f76657276696577206e6f74207361746973666965642c2063616e6e6f742072756e206f72646572427573696e6573732050726f636573732044657461696c206e6f74207361746973666965642c2063616e6e6f742072756e20726571756573745f636174616c6f677565a2646970667358221220f8ef259b6fa1413d27fa2bccad2eead3ba8ade3bc4ec7ddb4154c33eceb71b3b64736f6c63430007030033",
  "immutableReferences": {},
  "source": "pragma solidity 0.7.3;\r\n\r\nimport \"./SafeMath.sol\";\r\nimport \"./IERC20.sol\";\r\nimport \"./Inventory.sol\";\r\n\r\ncontract REA_Pre_Inventory_Minimial {\r\n\r\n\tusing SafeMath for uint256;\r\n\r\n\tenum Business_Process_Overview { None, planning, identification, negotiation, actualization, post_actualization }\r\n\tenum Business_Process_Detail { None, catalogue_requested, catalogue_received, identification, negotiation, offer_consideration, counter_consideration, remittance, despatch, receipt, invoice, abandoned, completed }\r\n\r\n\tBusiness_Process_Overview public Business_Process_Overview_state;\r\n\tBusiness_Process_Detail public Business_Process_Detail_state;\r\n\r\n    Inventory inventory;\r\n    uint[] public orderItemTypes;\r\n    uint[] public orderItems;\r\n    address seller;\r\n    address buyer;\r\n\tuint public vatAmount;\r\n\tuint public transactionAmount;\r\n\r\n    constructor(address _inventory, address _seller) {\r\n        inventory = Inventory(_inventory);\r\n        seller = _seller;\r\n        buyer = msg.sender;\r\n    }\r\n\r\n\tfunction request_catalogue() public {\r\n\t\trequire(msg.sender == buyer, \"Not buyer\");\r\n\t\tbool _Business_Process_Overview_state = Business_Process_Overview_state == Business_Process_Overview.None;\r\n\t\trequire(_Business_Process_Overview_state, \"Business Process Overview not satisfied, cannot run request_catalogue\");\r\n\r\n\t\tbool _Business_Process_Detail_state = Business_Process_Detail_state == Business_Process_Detail.None;\r\n\t\trequire(_Business_Process_Detail_state, \"Business Process Detail not satisfied, cannot run request_catalogue\");\r\n\r\n\t\tBusiness_Process_Overview_state = Business_Process_Overview.planning;\r\n\t\tBusiness_Process_Detail_state = Business_Process_Detail.catalogue_requested;\r\n\t}\r\n\r\n\tfunction non_committal_order() public {\r\n\t\trequire(msg.sender == buyer, \"Not buyer\");\r\n\t\tbool _Business_Process_Overview_state = Business_Process_Overview_state == Business_Process_Overview.planning;\r\n\t\trequire(_Business_Process_Overview_state, \"Business Process Overview not satisfied, cannot run non_committal_order\");\r\n\r\n\t\tbool _Business_Process_Detail_state = Business_Process_Detail_state == Business_Process_Detail.catalogue_received;\r\n\t\trequire(_Business_Process_Detail_state, \"Business Process Detail not satisfied, cannot run non_committal_order\");\r\n\r\n\t\tBusiness_Process_Overview_state = Business_Process_Overview.identification;\r\n\t\tBusiness_Process_Detail_state = Business_Process_Detail.identification;\r\n\t}\r\n\r\n\tfunction abandon() public {\r\n\t\trequire(msg.sender == buyer || msg.sender == seller, \"Not buyer or seller\");\r\n\t\tbool _Business_Process_Overview_state = Business_Process_Overview_state == Business_Process_Overview.planning || Business_Process_Overview_state == Business_Process_Overview.identification || Business_Process_Overview_state == Business_Process_Overview.negotiation || Business_Process_Overview_state == Business_Process_Overview.actualization;\r\n\t\trequire(_Business_Process_Overview_state, \"Business Process Overview not satisfied, cannot run abandon\");\r\n\r\n\t\tbool _Business_Process_Detail_state = Business_Process_Detail_state == Business_Process_Detail.catalogue_requested || Business_Process_Detail_state == Business_Process_Detail.catalogue_received || Business_Process_Detail_state == Business_Process_Detail.identification || Business_Process_Detail_state == Business_Process_Detail.negotiation || Business_Process_Detail_state == Business_Process_Detail.counter_consideration || Business_Process_Detail_state == Business_Process_Detail.remittance || Business_Process_Detail_state == Business_Process_Detail.despatch || Business_Process_Detail_state == Business_Process_Detail.receipt || Business_Process_Detail_state == Business_Process_Detail.invoice;\r\n\t\trequire(_Business_Process_Detail_state, \"Business Process Detail not satisfied, cannot run abandon\");\r\n\r\n\t\tBusiness_Process_Overview_state = Business_Process_Overview.post_actualization;\r\n\t\tBusiness_Process_Detail_state = Business_Process_Detail.abandoned;\r\n\t}\r\n\r\n\tfunction order(uint[] calldata _itemTypes) public {\r\n\t\trequire(msg.sender == buyer, \"Not buyer\");\r\n\t\tbool _Business_Process_Overview_state = Business_Process_Overview_state == Business_Process_Overview.identification || Business_Process_Overview_state == Business_Process_Overview.negotiation;\r\n\t\trequire(_Business_Process_Overview_state, \"Business Process Overview not satisfied, cannot run order\");\r\n\r\n\t\tbool _Business_Process_Detail_state = Business_Process_Detail_state == Business_Process_Detail.negotiation || Business_Process_Detail_state == Business_Process_Detail.counter_consideration;\r\n\t\trequire(_Business_Process_Detail_state, \"Business Process Detail not satisfied, cannot run order\");\r\n\r\n        orderItemTypes = _itemTypes;\r\n\r\n\t\tBusiness_Process_Overview_state = Business_Process_Overview.negotiation;\r\n\t\tBusiness_Process_Detail_state = Business_Process_Detail.offer_consideration;\r\n\t}\r\n\r\n\tfunction response_simple_accept(uint[] calldata _orderItems) public {\r\n\t\trequire(msg.sender == seller, \"Not seller\");\r\n\t\tbool _Business_Process_Overview_state = Business_Process_Overview_state == Business_Process_Overview.negotiation;\r\n\t\trequire(_Business_Process_Overview_state, \"Business Process Overview not satisfied, cannot run response_simple_accept\");\r\n\r\n\t\tbool _Business_Process_Detail_state = Business_Process_Detail_state == Business_Process_Detail.offer_consideration;\r\n\t\trequire(_Business_Process_Detail_state, \"Business Process Detail not satisfied, cannot run response_simple_accept\");\r\n\r\n\t\trequire(orderItemTypes.length == _orderItems.length, \"Lengths do not match\");\r\n        orderItems = _orderItems;\r\n\r\n\t\tBusiness_Process_Overview_state = Business_Process_Overview.actualization;\r\n\t\tBusiness_Process_Detail_state = Business_Process_Detail.remittance;\r\n\t}\r\n\r\n\tfunction invoice() public {\r\n\t\trequire(msg.sender == seller, \"Not seller\");\r\n\t\tbool _Business_Process_Overview_state = Business_Process_Overview_state == Business_Process_Overview.actualization;\r\n\t\trequire(_Business_Process_Overview_state, \"Business Process Overview not satisfied, cannot run invoice\");\r\n\r\n\t\tbool _Business_Process_Detail_state = Business_Process_Detail_state == Business_Process_Detail.invoice;\r\n\t\trequire(_Business_Process_Detail_state, \"Business Process Detail not satisfied, cannot run invoice\");\r\n\r\n\t\tBusiness_Process_Overview_state = Business_Process_Overview.post_actualization;\r\n\t\tBusiness_Process_Detail_state = Business_Process_Detail.completed;\r\n\t}\r\n\r\n\tfunction catalogue() public {\r\n\t\trequire(msg.sender == seller, \"Not seller\");\r\n\t\tbool _Business_Process_Detail_state = Business_Process_Detail_state == Business_Process_Detail.catalogue_requested;\r\n\t\trequire(_Business_Process_Detail_state, \"Business Process Detail not satisfied, cannot run catalogue\");\r\n\r\n\t\tBusiness_Process_Detail_state = Business_Process_Detail.catalogue_received;\r\n\t}\r\n\r\n\tfunction availability_report() public {\r\n\t\trequire(msg.sender == seller, \"Not seller\");\r\n\t\tbool _Business_Process_Detail_state = Business_Process_Detail_state == Business_Process_Detail.identification;\r\n\t\trequire(_Business_Process_Detail_state, \"Business Process Detail not satisfied, cannot run availability_report\");\r\n\r\n\t\tBusiness_Process_Detail_state = Business_Process_Detail.negotiation;\r\n\t}\r\n\r\n\tfunction response_counter() public {\r\n\t\trequire(msg.sender == seller, \"Not seller\");\r\n\t\tbool _Business_Process_Detail_state = Business_Process_Detail_state == Business_Process_Detail.offer_consideration;\r\n\t\trequire(_Business_Process_Detail_state, \"Business Process Detail not satisfied, cannot run response_counter\");\r\n\r\n\t\tBusiness_Process_Detail_state = Business_Process_Detail.counter_consideration;\r\n\t}\r\n\r\n\tfunction response_simple_reject() public {\r\n\t\trequire(msg.sender == seller, \"Not seller\");\r\n\t\tbool _Business_Process_Overview_state = Business_Process_Overview_state == Business_Process_Overview.negotiation;\r\n\t\trequire(_Business_Process_Overview_state, \"Business Process Overview not satisfied, cannot run response_simple_reject\");\r\n\r\n\t\tbool _Business_Process_Detail_state = Business_Process_Detail_state == Business_Process_Detail.offer_consideration;\r\n\t\trequire(_Business_Process_Detail_state, \"Business Process Detail not satisfied, cannot run response_simple_reject\");\r\n\r\n\t\tBusiness_Process_Overview_state = Business_Process_Overview.post_actualization;\r\n\t\tBusiness_Process_Detail_state = Business_Process_Detail.abandoned;\r\n\t}\r\n\r\n\r\n\tfunction remittance_advice() public {\r\n\t\trequire(msg.sender == buyer, \"Not buyer\");\r\n\t\tbool _Business_Process_Detail_state = Business_Process_Detail_state == Business_Process_Detail.remittance;\r\n\t\trequire(_Business_Process_Detail_state, \"Business Process Detail not satisfied, cannot run remittance_advice\");\r\n\r\n\t\tuint sum;\r\n\t\tuint vat;\r\n\t\t(sum, vat) = computeSumAndVat();\r\n\r\n\t\tIERC20(inventory.getCurrencyAddress()).transferFrom(msg.sender, seller, sum);\r\n\t\tIERC20(inventory.getCurrencyAddress()).transferFrom(msg.sender, inventory.getTaxAuthority(), vat);\r\n\r\n\t\tvatAmount = vat;\r\n\t\ttransactionAmount = sum;\r\n\r\n\t\tBusiness_Process_Detail_state = Business_Process_Detail.despatch;\r\n\t}\r\n\r\n\tfunction computeSumAndVat() public view returns(uint sum, uint vat){\r\n\t\tsum = 0;\r\n\t\tfor (uint i = 0; i < orderItems.length; i++){\r\n            uint price = inventory.getItemPrice(orderItemTypes[i], orderItems[i]);\r\n\t\t\tsum = sum.add(price);\r\n\t\t}\r\n\t\tvat = sum.mul(25).div(100);\r\n\t}\r\n\r\n\tfunction despatch_advice() public {\r\n\t\trequire(msg.sender == seller, \"Not seller\");\r\n\t\tbool _Business_Process_Detail_state = Business_Process_Detail_state == Business_Process_Detail.despatch;\r\n\t\trequire(_Business_Process_Detail_state, \"Business Process Detail not satisfied, cannot run despatch_advice\");\r\n\r\n        for(uint i = 0; i < orderItemTypes.length; i++){\r\n            require(inventory.progressItemState(orderItemTypes[i], orderItems[i]), \"Could not progress item\");\r\n        }\r\n\r\n\t\tBusiness_Process_Detail_state = Business_Process_Detail.receipt;\r\n\t}\r\n\r\n\tfunction receipt_advice() public {\r\n\t\trequire(msg.sender == buyer, \"Not buyer\");\r\n\t\tbool _Business_Process_Detail_state = Business_Process_Detail_state == Business_Process_Detail.receipt;\r\n\t\trequire(_Business_Process_Detail_state, \"Business Process Detail not satisfied, cannot run receipt_advice\");\r\n\r\n\t\tBusiness_Process_Detail_state = Business_Process_Detail.invoice;\r\n\t}\r\n\r\n}",
  "sourcePath": "C:/Users/lherskind/OneDrive - Deloitte (O365D)/Documents/GitHub/REABlockchain/solidity/contracts/REA_pre_inv_min.sol",
  "compiler": {
    "name": "solc",
    "version": "0.7.3+commit.9bfce1f6.Emscripten.clang"
  },
  "schemaVersion": "3.3.1",
  "updatedAt": "2020-11-18T10:03:33.459Z",
  "devdoc": {
    "kind": "dev",
    "methods": {},
    "version": 1
  },
  "userdoc": {
    "kind": "user",
    "methods": {},
    "version": 1
  }
}