{
  "contractName": "REA_Pre",
  "abi": [
    {
      "inputs": [],
      "name": "Business_Process_Detail_state",
      "outputs": [
        {
          "internalType": "enum REA_Pre.Business_Process_Detail",
          "name": "",
          "type": "uint8"
        }
      ],
      "stateMutability": "view",
      "type": "function"
    },
    {
      "inputs": [],
      "name": "Business_Process_Overview_state",
      "outputs": [
        {
          "internalType": "enum REA_Pre.Business_Process_Overview",
          "name": "",
          "type": "uint8"
        }
      ],
      "stateMutability": "view",
      "type": "function"
    },
    {
      "inputs": [],
      "name": "Business_Process_Phase_state",
      "outputs": [
        {
          "internalType": "enum REA_Pre.Business_Process_Phase",
          "name": "",
          "type": "uint8"
        }
      ],
      "stateMutability": "view",
      "type": "function"
    },
    {
      "inputs": [],
      "name": "Economic_Agent_Type_state",
      "outputs": [
        {
          "internalType": "enum REA_Pre.Economic_Agent_Type",
          "name": "",
          "type": "uint8"
        }
      ],
      "stateMutability": "view",
      "type": "function"
    },
    {
      "inputs": [],
      "name": "Economic_Agent_state",
      "outputs": [
        {
          "internalType": "enum REA_Pre.Economic_Agent",
          "name": "",
          "type": "uint8"
        }
      ],
      "stateMutability": "view",
      "type": "function"
    },
    {
      "inputs": [],
      "name": "Economic_Commitment_state",
      "outputs": [
        {
          "internalType": "enum REA_Pre.Economic_Commitment",
          "name": "",
          "type": "uint8"
        }
      ],
      "stateMutability": "view",
      "type": "function"
    },
    {
      "inputs": [],
      "name": "Economic_Contract_state",
      "outputs": [
        {
          "internalType": "enum REA_Pre.Economic_Contract",
          "name": "",
          "type": "uint8"
        }
      ],
      "stateMutability": "view",
      "type": "function"
    },
    {
      "inputs": [],
      "name": "Economic_Event_state",
      "outputs": [
        {
          "internalType": "enum REA_Pre.Economic_Event",
          "name": "",
          "type": "uint8"
        }
      ],
      "stateMutability": "view",
      "type": "function"
    },
    {
      "inputs": [],
      "name": "Economic_Resource_Type_state",
      "outputs": [
        {
          "internalType": "enum REA_Pre.Economic_Resource_Type",
          "name": "",
          "type": "uint8"
        }
      ],
      "stateMutability": "view",
      "type": "function"
    },
    {
      "inputs": [],
      "name": "Economic_Resource_state",
      "outputs": [
        {
          "internalType": "enum REA_Pre.Economic_Resource",
          "name": "",
          "type": "uint8"
        }
      ],
      "stateMutability": "view",
      "type": "function"
    },
    {
      "inputs": [],
      "name": "identify_agent_type",
      "outputs": [],
      "stateMutability": "nonpayable",
      "type": "function"
    },
    {
      "inputs": [],
      "name": "modify",
      "outputs": [],
      "stateMutability": "nonpayable",
      "type": "function"
    },
    {
      "inputs": [],
      "name": "identify_agent",
      "outputs": [],
      "stateMutability": "nonpayable",
      "type": "function"
    },
    {
      "inputs": [],
      "name": "identify_resource_type",
      "outputs": [],
      "stateMutability": "nonpayable",
      "type": "function"
    },
    {
      "inputs": [],
      "name": "identify_available_resource",
      "outputs": [],
      "stateMutability": "nonpayable",
      "type": "function"
    },
    {
      "inputs": [],
      "name": "sold",
      "outputs": [],
      "stateMutability": "nonpayable",
      "type": "function"
    },
    {
      "inputs": [],
      "name": "request_catalogue",
      "outputs": [],
      "stateMutability": "nonpayable",
      "type": "function"
    },
    {
      "inputs": [],
      "name": "non_committal_order",
      "outputs": [],
      "stateMutability": "nonpayable",
      "type": "function"
    },
    {
      "inputs": [],
      "name": "abandon",
      "outputs": [],
      "stateMutability": "nonpayable",
      "type": "function"
    },
    {
      "inputs": [],
      "name": "order",
      "outputs": [],
      "stateMutability": "nonpayable",
      "type": "function"
    },
    {
      "inputs": [],
      "name": "response_simple_accept",
      "outputs": [],
      "stateMutability": "nonpayable",
      "type": "function"
    },
    {
      "inputs": [],
      "name": "response_simple_reject",
      "outputs": [],
      "stateMutability": "nonpayable",
      "type": "function"
    },
    {
      "inputs": [],
      "name": "invoice",
      "outputs": [],
      "stateMutability": "nonpayable",
      "type": "function"
    },
    {
      "inputs": [],
      "name": "catalogue",
      "outputs": [],
      "stateMutability": "nonpayable",
      "type": "function"
    },
    {
      "inputs": [],
      "name": "availability_report",
      "outputs": [],
      "stateMutability": "nonpayable",
      "type": "function"
    },
    {
      "inputs": [],
      "name": "response_counter",
      "outputs": [],
      "stateMutability": "nonpayable",
      "type": "function"
    },
    {
      "inputs": [],
      "name": "remittance_advice",
      "outputs": [],
      "stateMutability": "nonpayable",
      "type": "function"
    },
    {
      "inputs": [],
      "name": "despatch_advice",
      "outputs": [],
      "stateMutability": "nonpayable",
      "type": "function"
    },
    {
      "inputs": [],
      "name": "receipt_advice",
      "outputs": [],
      "stateMutability": "nonpayable",
      "type": "function"
    },
    {
      "inputs": [],
      "name": "offer",
      "outputs": [],
      "stateMutability": "nonpayable",
      "type": "function"
    },
    {
      "inputs": [],
      "name": "accept",
      "outputs": [],
      "stateMutability": "nonpayable",
      "type": "function"
    },
    {
      "inputs": [],
      "name": "service",
      "outputs": [],
      "stateMutability": "nonpayable",
      "type": "function"
    },
    {
      "inputs": [],
      "name": "complete_contract",
      "outputs": [],
      "stateMutability": "nonpayable",
      "type": "function"
    },
    {
      "inputs": [],
      "name": "propose",
      "outputs": [],
      "stateMutability": "nonpayable",
      "type": "function"
    },
    {
      "inputs": [],
      "name": "complete_commitment",
      "outputs": [],
      "stateMutability": "nonpayable",
      "type": "function"
    },
    {
      "inputs": [],
      "name": "specify",
      "outputs": [],
      "stateMutability": "nonpayable",
      "type": "function"
    },
    {
      "inputs": [],
      "name": "pending_contract",
      "outputs": [],
      "stateMutability": "nonpayable",
      "type": "function"
    },
    {
      "inputs": [],
      "name": "complete_event",
      "outputs": [],
      "stateMutability": "nonpayable",
      "type": "function"
    },
    {
      "inputs": [],
      "name": "phase_start",
      "outputs": [],
      "stateMutability": "nonpayable",
      "type": "function"
    },
    {
      "inputs": [],
      "name": "phase_service",
      "outputs": [],
      "stateMutability": "nonpayable",
      "type": "function"
    },
    {
      "inputs": [],
      "name": "complete_phase",
      "outputs": [],
      "stateMutability": "nonpayable",
      "type": "function"
    }
  ],
  "bytecode": "0x608060405234801561001057600080fd5b50612e32806100206000396000f3fe608060405234801561001057600080fd5b50600436106102535760003560e01c8063895ae27911610146578063ac45cf2c116100c3578063c4ae9a9911610087578063c4ae9a99146104cd578063d52c4e99146104d7578063d598d4c914610500578063d781edc81461050a578063db2f878a14610514578063ea94331a1461051e57610253565b8063ac45cf2c1461047c578063bf15071d146104a5578063c028df06146104af578063c0c2da70146104b9578063c198f8ba146104c357610253565b80639941ab7a1161010a5780639941ab7a1461042b5780639b37b0f2146104355780639caa094a1461045e5780639fab1743146104685780639fd6542b1461047257610253565b8063895ae279146103da5780638c65c9c8146103e4578063953e046e146103ee57806396519de8146103f85780639860fe671461042157610253565b806329de8a75116101d45780635d9573d6116101985780635d9573d61461038957806364cf33b8146103b25780636a4148d9146103bc5780636c03145a146103c657806388318834146103d057610253565b806329de8a75146103385780633cdecef01461034257806344a93c7c1461034c5780634d6924a91461037557806356533b051461037f57610253565b80631b0529051161021b5780631b052905146102c857806324e4013a146102f157806325fef32a146102fb578063263333ab146103055780632852b71c1461032e57610253565b80630116c8e01461025857806302c7e7af146102625780630e3a26c71461026c5780630e4e0285146102765780630f5f0a151461029f575b600080fd5b610260610528565b005b61026a6105d1565b005b61027461067b565b005b61027e6107cd565b6040518082600481111561028e57fe5b815260200191505060405180910390f35b6102a76107e0565b604051808260048111156102b757fe5b815260200191505060405180910390f35b6102d06107f3565b604051808260018111156102e057fe5b815260200191505060405180910390f35b6102f9610806565b005b6103036108b0565b005b61030d610a02565b6040518082600381111561031d57fe5b815260200191505060405180910390f35b610336610a15565b005b610340610abf565b005b61034a610b69565b005b610354610c13565b6040518082600181111561036457fe5b815260200191505060405180910390f35b61037d610c24565b005b610387610cce565b005b610391610d78565b604051808260018111156103a157fe5b815260200191505060405180910390f35b6103ba610d8b565b005b6103c4610f7f565b005b6103ce611029565b005b6103d86110d3565b005b6103e2611435565b005b6103ec611587565b005b6103f66116d7565b005b610400611781565b6040518082600281111561041057fe5b815260200191505060405180910390f35b610429611794565b005b6104336118e6565b005b61043d61198f565b6040518082600381111561044d57fe5b815260200191505060405180910390f35b6104666119a2565b005b610470611a4c565b005b61047a611af5565b005b610484611b9e565b6040518082600c81111561049457fe5b815260200191505060405180910390f35b6104ad611bb1565b005b6104b7611d63565b005b6104c1611e0c565b005b6104cb611eb6565b005b6104d5611f5f565b005b6104df612005565b604051808260058111156104ef57fe5b815260200191505060405180910390f35b610508612018565b005b610512612212565b005b61051c6122bc565b005b610526612366565b005b600080600381111561053657fe5b600060099054906101000a900460ff16600381111561055157fe5b149050806105aa576040517f08c379a000000000000000000000000000000000000000000000000000000000815260040180806020018281038252603c815260200180612691603c913960400191505060405180910390fd5b6001600060096101000a81548160ff021916908360038111156105c957fe5b021790555050565b6000600160028111156105e057fe5b600060039054906101000a900460ff1660028111156105fb57fe5b14905080610654576040517f08c379a00000000000000000000000000000000000000000000000000000000081526004018080602001828103825260308152602001806127176030913960400191505060405180910390fd5b6002600060036101000a81548160ff0219169083600281111561067357fe5b021790555050565b60006003600581111561068a57fe5b600060049054906101000a900460ff1660058111156106a557fe5b149050806106fe576040517f08c379a000000000000000000000000000000000000000000000000000000000815260040180806020018281038252604a815260200180612b7f604a913960600191505060405180910390fd5b60006005600c81111561070d57fe5b600060059054906101000a900460ff16600c81111561072857fe5b14905080610781576040517f08c379a0000000000000000000000000000000000000000000000000000000008152600401808060200182810382526048815260200180612aef6048913960600191505060405180910390fd5b6004600060046101000a81548160ff021916908360058111156107a057fe5b02179055506007600060056101000a81548160ff0219169083600c8111156107c457fe5b02179055505050565b600060069054906101000a900460ff1681565b600060089054906101000a900460ff1681565b600060019054906101000a900460ff1681565b60006001600c81111561081557fe5b600060059054906101000a900460ff16600c81111561083057fe5b14905080610889576040517f08c379a000000000000000000000000000000000000000000000000000000000815260040180806020018281038252603b8152602001806127b2603b913960400191505060405180910390fd5b6002600060056101000a81548160ff0219169083600c8111156108a857fe5b021790555050565b6000600360058111156108bf57fe5b600060049054906101000a900460ff1660058111156108da57fe5b14905080610933576040517f08c379a000000000000000000000000000000000000000000000000000000000815260040180806020018281038252604a8152602001806126cd604a913960600191505060405180910390fd5b60006005600c81111561094257fe5b600060059054906101000a900460ff16600c81111561095d57fe5b149050806109b6576040517f08c379a0000000000000000000000000000000000000000000000000000000008152600401808060200182810382526048815260200180612b376048913960600191505060405180910390fd5b6005600060046101000a81548160ff021916908360058111156109d557fe5b0217905550600b600060056101000a81548160ff0219169083600c8111156109f957fe5b02179055505050565b600060099054906101000a900460ff1681565b600060016004811115610a2457fe5b600060069054906101000a900460ff166004811115610a3f57fe5b14905080610a98576040517f08c379a0000000000000000000000000000000000000000000000000000000008152600401808060200182810382526032815260200180612bf96032913960400191505060405180910390fd5b6002600060066101000a81548160ff02191690836004811115610ab757fe5b021790555050565b600060026003811115610ace57fe5b600060099054906101000a900460ff166003811115610ae957fe5b14905080610b42576040517f08c379a000000000000000000000000000000000000000000000000000000000815260040180806020018281038252603f815260200180612828603f913960400191505060405180910390fd5b6003600060096101000a81548160ff02191690836003811115610b6157fe5b021790555050565b60006007600c811115610b7857fe5b600060059054906101000a900460ff16600c811115610b9357fe5b14905080610bec576040517f08c379a000000000000000000000000000000000000000000000000000000000815260040180806020018281038252604381526020018061261b6043913960600191505060405180910390fd5b6008600060056101000a81548160ff0219169083600c811115610c0b57fe5b021790555050565b60008054906101000a900460ff1681565b600060036004811115610c3357fe5b600060069054906101000a900460ff166004811115610c4e57fe5b14905080610ca7576040517f08c379a000000000000000000000000000000000000000000000000000000000815260040180806020018281038252603d81526020018061248e603d913960400191505060405180910390fd5b6004600060066101000a81548160ff02191690836004811115610cc657fe5b021790555050565b60006009600c811115610cdd57fe5b600060059054906101000a900460ff16600c811115610cf857fe5b14905080610d51576040517f08c379a0000000000000000000000000000000000000000000000000000000008152600401808060200182810382526040815260200180612c626040913960400191505060405180910390fd5b600a600060056101000a81548160ff0219169083600c811115610d7057fe5b021790555050565b600060029054906101000a900460ff1681565b6000600180811115610d9957fe5b60008054906101000a900460ff166001811115610db257fe5b14905080610e0b576040517f08c379a00000000000000000000000000000000000000000000000000000000081526004018080602001828103825260348152602001806127476034913960400191505060405180910390fd5b6000600180811115610e1957fe5b600060019054906101000a900460ff166001811115610e3457fe5b14905080610e8d576040517f08c379a000000000000000000000000000000000000000000000000000000000815260040180806020018281038252602f8152602001806128a0602f913960400191505060405180910390fd5b6000600180811115610e9b57fe5b600060029054906101000a900460ff166001811115610eb657fe5b14905080610f0f576040517f08c379a0000000000000000000000000000000000000000000000000000000008152600401808060200182810382526037815260200180612c2b6037913960400191505060405180910390fd5b60016000806101000a81548160ff02191690836001811115610f2d57fe5b02179055506001600060016101000a81548160ff02191690836001811115610f5157fe5b02179055506001600060026101000a81548160ff02191690836001811115610f7557fe5b0217905550505050565b600060026004811115610f8e57fe5b600060089054906101000a900460ff166004811115610fa957fe5b14905080611002576040517f08c379a00000000000000000000000000000000000000000000000000000000081526004018080602001828103825260398152602001806124556039913960400191505060405180910390fd5b6003600060086101000a81548160ff0219169083600481111561102157fe5b021790555050565b60006001600381111561103857fe5b600060099054906101000a900460ff16600381111561105357fe5b149050806110ac576040517f08c379a000000000000000000000000000000000000000000000000000000000815260040180806020018281038252603e815260200180612910603e913960400191505060405180910390fd5b6002600060096101000a81548160ff021916908360038111156110cb57fe5b021790555050565b6000600160058111156110e257fe5b600060049054906101000a900460ff1660058111156110fd57fe5b148061112e57506002600581111561111157fe5b600060049054906101000a900460ff16600581111561112c57fe5b145b8061115e57506003600581111561114157fe5b600060049054906101000a900460ff16600581111561115c57fe5b145b8061118e57506004600581111561117157fe5b600060049054906101000a900460ff16600581111561118c57fe5b145b9050806111e6576040517f08c379a000000000000000000000000000000000000000000000000000000000815260040180806020018281038252603b8152602001806127ed603b913960400191505060405180910390fd5b60006001600c8111156111f557fe5b600060059054906101000a900460ff16600c81111561121057fe5b148061124157506002600c81111561122457fe5b600060059054906101000a900460ff16600c81111561123f57fe5b145b8061127157506003600c81111561125457fe5b600060059054906101000a900460ff16600c81111561126f57fe5b145b806112a157506004600c81111561128457fe5b600060059054906101000a900460ff16600c81111561129f57fe5b145b806112d157506006600c8111156112b457fe5b600060059054906101000a900460ff16600c8111156112cf57fe5b145b8061130157506007600c8111156112e457fe5b600060059054906101000a900460ff16600c8111156112ff57fe5b145b8061133157506008600c81111561131457fe5b600060059054906101000a900460ff16600c81111561132f57fe5b145b8061136157506009600c81111561134457fe5b600060059054906101000a900460ff16600c81111561135f57fe5b145b806113915750600a600c81111561137457fe5b600060059054906101000a900460ff16600c81111561138f57fe5b145b9050806113e9576040517f08c379a00000000000000000000000000000000000000000000000000000000081526004018080602001828103825260398152602001806128676039913960400191505060405180910390fd5b6005600060046101000a81548160ff0219169083600581111561140857fe5b0217905550600b600060056101000a81548160ff0219169083600c81111561142c57fe5b02179055505050565b60006004600581111561144457fe5b600060049054906101000a900460ff16600581111561145f57fe5b149050806114b8576040517f08c379a000000000000000000000000000000000000000000000000000000000815260040180806020018281038252603b8152602001806125e0603b913960400191505060405180910390fd5b6000600a600c8111156114c757fe5b600060059054906101000a900460ff16600c8111156114e257fe5b1490508061153b576040517f08c379a00000000000000000000000000000000000000000000000000000000081526004018080602001828103825260398152602001806124cb6039913960400191505060405180910390fd5b6005600060046101000a81548160ff0219169083600581111561155a57fe5b0217905550600c600060056101000a81548160ff0219169083600c81111561157e57fe5b02179055505050565b600080600581111561159557fe5b600060049054906101000a900460ff1660058111156115b057fe5b14905080611609576040517f08c379a0000000000000000000000000000000000000000000000000000000008152600401808060200182810382526045815260200180612a236045913960600191505060405180910390fd5b600080600c81111561161757fe5b600060059054906101000a900460ff16600c81111561163257fe5b1490508061168b576040517f08c379a0000000000000000000000000000000000000000000000000000000008152600401808060200182810382526043815260200180612d836043913960600191505060405180910390fd5b6001600060046101000a81548160ff021916908360058111156116aa57fe5b02179055506001600060056101000a81548160ff0219169083600c8111156116ce57fe5b02179055505050565b60006003600c8111156116e657fe5b600060059054906101000a900460ff16600c81111561170157fe5b1490508061175a576040517f08c379a0000000000000000000000000000000000000000000000000000000008152600401808060200182810382526045815260200180612aaa6045913960600191505060405180910390fd5b6004600060056101000a81548160ff0219169083600c81111561177957fe5b021790555050565b600060039054906101000a900460ff1681565b6000600160058111156117a357fe5b600060049054906101000a900460ff1660058111156117be57fe5b14905080611817576040517f08c379a00000000000000000000000000000000000000000000000000000000081526004018080602001828103825260478152602001806129956047913960600191505060405180910390fd5b60006002600c81111561182657fe5b600060059054906101000a900460ff16600c81111561184157fe5b1490508061189a576040517f08c379a00000000000000000000000000000000000000000000000000000000081526004018080602001828103825260458152602001806124106045913960600191505060405180910390fd5b6002600060046101000a81548160ff021916908360058111156118b957fe5b02179055506003600060056101000a81548160ff0219169083600c8111156118dd57fe5b02179055505050565b60008060018111156118f457fe5b600060029054906101000a900460ff16600181111561190f57fe5b14905080611968576040517f08c379a00000000000000000000000000000000000000000000000000000000081526004018080602001828103825260478152602001806129dc6047913960600191505060405180910390fd5b6001600060026101000a81548160ff0219169083600181111561198757fe5b021790555050565b600060079054906101000a900460ff1681565b60006005600c8111156119b157fe5b600060059054906101000a900460ff16600c8111156119cc57fe5b14905080611a25576040517f08c379a0000000000000000000000000000000000000000000000000000000008152600401808060200182810382526042815260200180612a686042913960600191505060405180910390fd5b6006600060056101000a81548160ff0219169083600c811115611a4457fe5b021790555050565b6000806002811115611a5a57fe5b600060039054906101000a900460ff166002811115611a7557fe5b14905080611ace576040517f08c379a000000000000000000000000000000000000000000000000000000000815260040180806020018281038252604781526020018061294e6047913960600191505060405180910390fd5b6001600060036101000a81548160ff02191690836002811115611aed57fe5b021790555050565b6000806004811115611b0357fe5b600060089054906101000a900460ff166004811115611b1e57fe5b14905080611b77576040517f08c379a0000000000000000000000000000000000000000000000000000000008152600401808060200182810382526030815260200180612ca26030913960400191505060405180910390fd5b6001600060086101000a81548160ff02191690836004811115611b9657fe5b021790555050565b600060059054906101000a900460ff1681565b600060026005811115611bc057fe5b600060049054906101000a900460ff166005811115611bdb57fe5b1480611c0c575060036005811115611bef57fe5b600060049054906101000a900460ff166005811115611c0a57fe5b145b905080611c64576040517f08c379a0000000000000000000000000000000000000000000000000000000008152600401808060200182810382526039815260200180612d4a6039913960400191505060405180910390fd5b60006004600c811115611c7357fe5b600060059054906101000a900460ff16600c811115611c8e57fe5b1480611cbf57506006600c811115611ca257fe5b600060059054906101000a900460ff16600c811115611cbd57fe5b145b905080611d17576040517f08c379a000000000000000000000000000000000000000000000000000000000815260040180806020018281038252603781526020018061277b6037913960400191505060405180910390fd5b6003600060046101000a81548160ff02191690836005811115611d3657fe5b02179055506005600060056101000a81548160ff0219169083600c811115611d5a57fe5b02179055505050565b6000806004811115611d7157fe5b600060069054906101000a900460ff166004811115611d8c57fe5b14905080611de5576040517f08c379a00000000000000000000000000000000000000000000000000000000081526004018080602001828103825260318152602001806125396031913960400191505060405180910390fd5b6001600060066101000a81548160ff02191690836004811115611e0457fe5b021790555050565b600060036004811115611e1b57fe5b600060089054906101000a900460ff166004811115611e3657fe5b14905080611e8f576040517f08c379a0000000000000000000000000000000000000000000000000000000008152600401808060200182810382526037815260200180612d136037913960400191505060405180910390fd5b6004600060086101000a81548160ff02191690836004811115611eae57fe5b021790555050565b6000806003811115611ec457fe5b600060079054906101000a900460ff166003811115611edf57fe5b14905080611f38576040517f08c379a00000000000000000000000000000000000000000000000000000000081526004018080602001828103825260358152602001806125ab6035913960400191505060405180910390fd5b6001600060076101000a81548160ff02191690836003811115611f5757fe5b021790555050565b6000806001811115611f6d57fe5b60008054906101000a900460ff166001811115611f8657fe5b14905080611fdf576040517f08c379a000000000000000000000000000000000000000000000000000000000815260040180806020018281038252604181526020018061256a6041913960600191505060405180910390fd5b60016000806101000a81548160ff02191690836001811115611ffd57fe5b021790555050565b600060049054906101000a900460ff1681565b60006002600481111561202757fe5b600060069054906101000a900460ff16600481111561204257fe5b1490508061209b576040517f08c379a000000000000000000000000000000000000000000000000000000000815260040180806020018281038252603381526020018061265e6033913960400191505060405180910390fd5b6000600160038111156120aa57fe5b600060079054906101000a900460ff1660038111156120c557fe5b1490508061211e576040517f08c379a00000000000000000000000000000000000000000000000000000000081526004018080602001828103825260358152602001806125046035913960400191505060405180910390fd5b60006001600481111561212d57fe5b600060089054906101000a900460ff16600481111561214857fe5b149050806121a1576040517f08c379a0000000000000000000000000000000000000000000000000000000008152600401808060200182810382526030815260200180612bc96030913960400191505060405180910390fd5b6003600060066101000a81548160ff021916908360048111156121c057fe5b02179055506002600060076101000a81548160ff021916908360038111156121e457fe5b02179055506002600060086101000a81548160ff0219169083600481111561220857fe5b0217905550505050565b60006002600381111561222157fe5b600060079054906101000a900460ff16600381111561223c57fe5b14905080612295576040517f08c379a0000000000000000000000000000000000000000000000000000000008152600401808060200182810382526041815260200180612cd26041913960600191505060405180910390fd5b6003600060076101000a81548160ff021916908360038111156122b457fe5b021790555050565b60006008600c8111156122cb57fe5b600060059054906101000a900460ff16600c8111156122e657fe5b1490508061233f576040517f08c379a00000000000000000000000000000000000000000000000000000000081526004018080602001828103825260418152602001806128cf6041913960600191505060405180910390fd5b6009600060056101000a81548160ff0219169083600c81111561235e57fe5b021790555050565b600080600181111561237457fe5b600060019054906101000a900460ff16600181111561238f57fe5b149050806123e8576040517f08c379a0000000000000000000000000000000000000000000000000000000008152600401808060200182810382526037815260200180612dc66037913960400191505060405180910390fd5b6001600060016101000a81548160ff0219169083600181111561240757fe5b02179055505056fe427573696e6573732050726f636573732044657461696c206e6f74207361746973666965642c2063616e6e6f742072756e206e6f6e5f636f6d6d697474616c5f6f7264657245636f6e6f6d6963204576656e74206e6f74207361746973666965642c2063616e6e6f742072756e2070656e64696e675f636f6e747261637445636f6e6f6d696320436f6e7472616374206e6f74207361746973666965642c2063616e6e6f742072756e20636f6d706c6574655f636f6e7472616374427573696e6573732050726f636573732044657461696c206e6f74207361746973666965642c2063616e6e6f742072756e20696e766f69636545636f6e6f6d696320436f6d6d69746d656e74206e6f74207361746973666965642c2063616e6e6f742072756e207365727669636545636f6e6f6d696320436f6e7472616374206e6f74207361746973666965642c2063616e6e6f742072756e206f6666657245636f6e6f6d6963204167656e742054797065206e6f74207361746973666965642c2063616e6e6f742072756e206964656e746966795f6167656e745f7479706545636f6e6f6d696320436f6d6d69746d656e74206e6f74207361746973666965642c2063616e6e6f742072756e2070726f706f7365427573696e6573732050726f63657373204f76657276696577206e6f74207361746973666965642c2063616e6e6f742072756e20696e766f696365427573696e6573732050726f636573732044657461696c206e6f74207361746973666965642c2063616e6e6f742072756e2072656d697474616e63655f61647669636545636f6e6f6d696320436f6e7472616374206e6f74207361746973666965642c2063616e6e6f742072756e2073657276696365427573696e6573732050726f63657373205068617365206e6f74207361746973666965642c2063616e6e6f742072756e2070686173655f7374617274427573696e6573732050726f63657373204f76657276696577206e6f74207361746973666965642c2063616e6e6f742072756e20726573706f6e73655f73696d706c655f72656a65637445636f6e6f6d6963205265736f75726365206e6f74207361746973666965642c2063616e6e6f742072756e20736f6c6445636f6e6f6d6963204167656e742054797065206e6f74207361746973666965642c2063616e6e6f742072756e206d6f64696679427573696e6573732050726f636573732044657461696c206e6f74207361746973666965642c2063616e6e6f742072756e206f72646572427573696e6573732050726f636573732044657461696c206e6f74207361746973666965642c2063616e6e6f742072756e20636174616c6f677565427573696e6573732050726f63657373204f76657276696577206e6f74207361746973666965642c2063616e6e6f742072756e206162616e646f6e427573696e6573732050726f63657373205068617365206e6f74207361746973666965642c2063616e6e6f742072756e20636f6d706c6574655f7068617365427573696e6573732050726f636573732044657461696c206e6f74207361746973666965642c2063616e6e6f742072756e206162616e646f6e45636f6e6f6d6963204167656e74206e6f74207361746973666965642c2063616e6e6f742072756e206d6f64696679427573696e6573732050726f636573732044657461696c206e6f74207361746973666965642c2063616e6e6f742072756e2064657370617463685f616476696365427573696e6573732050726f63657373205068617365206e6f74207361746973666965642c2063616e6e6f742072756e2070686173655f7365727669636545636f6e6f6d6963205265736f75726365206e6f74207361746973666965642c2063616e6e6f742072756e206964656e746966795f617661696c61626c655f7265736f75726365427573696e6573732050726f63657373204f76657276696577206e6f74207361746973666965642c2063616e6e6f742072756e206e6f6e5f636f6d6d697474616c5f6f7264657245636f6e6f6d6963205265736f757263652054797065206e6f74207361746973666965642c2063616e6e6f742072756e206964656e746966795f7265736f757263655f74797065427573696e6573732050726f63657373204f76657276696577206e6f74207361746973666965642c2063616e6e6f742072756e20726571756573745f636174616c6f677565427573696e6573732050726f636573732044657461696c206e6f74207361746973666965642c2063616e6e6f742072756e20726573706f6e73655f636f756e746572427573696e6573732050726f636573732044657461696c206e6f74207361746973666965642c2063616e6e6f742072756e20617661696c6162696c6974795f7265706f7274427573696e6573732050726f636573732044657461696c206e6f74207361746973666965642c2063616e6e6f742072756e20726573706f6e73655f73696d706c655f616363657074427573696e6573732050726f636573732044657461696c206e6f74207361746973666965642c2063616e6e6f742072756e20726573706f6e73655f73696d706c655f72656a656374427573696e6573732050726f63657373204f76657276696577206e6f74207361746973666965642c2063616e6e6f742072756e20726573706f6e73655f73696d706c655f61636365707445636f6e6f6d6963204576656e74206e6f74207361746973666965642c2063616e6e6f742072756e207365727669636545636f6e6f6d696320436f6e7472616374206e6f74207361746973666965642c2063616e6e6f742072756e2061636365707445636f6e6f6d6963205265736f757263652054797065206e6f74207361746973666965642c2063616e6e6f742072756e206d6f64696679427573696e6573732050726f636573732044657461696c206e6f74207361746973666965642c2063616e6e6f742072756e20726563656970745f61647669636545636f6e6f6d6963204576656e74206e6f74207361746973666965642c2063616e6e6f742072756e207370656369667945636f6e6f6d696320436f6d6d69746d656e74206e6f74207361746973666965642c2063616e6e6f742072756e20636f6d706c6574655f636f6d6d69746d656e7445636f6e6f6d6963204576656e74206e6f74207361746973666965642c2063616e6e6f742072756e20636f6d706c6574655f6576656e74427573696e6573732050726f63657373204f76657276696577206e6f74207361746973666965642c2063616e6e6f742072756e206f72646572427573696e6573732050726f636573732044657461696c206e6f74207361746973666965642c2063616e6e6f742072756e20726571756573745f636174616c6f67756545636f6e6f6d6963204167656e74206e6f74207361746973666965642c2063616e6e6f742072756e206964656e746966795f6167656e74a26469706673582212207870bcfbfd62dcdfbd0380d743f761c782fb1243161960e877588b3b26a42c9364736f6c63430007030033",
  "immutableReferences": {},
  "source": "pragma solidity 0.7.3;\r\n\r\ncontract REA_Pre {\r\n\r\n\tenum Economic_Agent_Type { None, agent_type_identified }\r\n\tenum Economic_Agent { None, participating }\r\n\tenum Economic_Resource_Type { None, resource_type_identified }\r\n\tenum Economic_Resource { None, available, unavailable }\r\n\tenum Business_Process_Overview { None, planning, identification, negotiation, actualization, post_actualization }\r\n\tenum Business_Process_Detail { None, catalogue_requested, catalogue_received, identification, negotiation, offer_consideration, counter_consideration, remittance, despatch, receipt, invoice, abandoned, completed }\r\n\tenum Economic_Contract { None, offered, accepted, in_service, contract_complete }\r\n\tenum Economic_Commitment { None, proposed, in_service_commitment, commitment_complete }\r\n\tenum Economic_Event { None, specified, in_service_event, pending_event, event_complete }\r\n\tenum Business_Process_Phase { None, phase_waiting, in_service_phase, phase_complete }\r\n\r\n\tEconomic_Agent_Type public Economic_Agent_Type_state;\r\n\tEconomic_Agent public Economic_Agent_state;\r\n\tEconomic_Resource_Type public Economic_Resource_Type_state;\r\n\tEconomic_Resource public Economic_Resource_state;\r\n\tBusiness_Process_Overview public Business_Process_Overview_state;\r\n\tBusiness_Process_Detail public Business_Process_Detail_state;\r\n\tEconomic_Contract public Economic_Contract_state;\r\n\tEconomic_Commitment public Economic_Commitment_state;\r\n\tEconomic_Event public Economic_Event_state;\r\n\tBusiness_Process_Phase public Business_Process_Phase_state;\r\n\r\n\r\n\tfunction identify_agent_type() public {\r\n\t\tbool _Economic_Agent_Type_state = Economic_Agent_Type_state == Economic_Agent_Type.None;\r\n\t\trequire(_Economic_Agent_Type_state, \"Economic Agent Type not satisfied, cannot run identify_agent_type\");\r\n\r\n\t\tEconomic_Agent_Type_state = Economic_Agent_Type.agent_type_identified;\r\n\t}\r\n\r\n\tfunction modify() public {\r\n\t\tbool _Economic_Agent_Type_state = Economic_Agent_Type_state == Economic_Agent_Type.agent_type_identified;\r\n\t\trequire(_Economic_Agent_Type_state, \"Economic Agent Type not satisfied, cannot run modify\");\r\n\r\n\t\tbool _Economic_Agent_state = Economic_Agent_state == Economic_Agent.participating;\r\n\t\trequire(_Economic_Agent_state, \"Economic Agent not satisfied, cannot run modify\");\r\n\r\n\t\tbool _Economic_Resource_Type_state = Economic_Resource_Type_state == Economic_Resource_Type.resource_type_identified;\r\n\t\trequire(_Economic_Resource_Type_state, \"Economic Resource Type not satisfied, cannot run modify\");\r\n\r\n\t\tEconomic_Agent_Type_state = Economic_Agent_Type.agent_type_identified;\r\n\t\tEconomic_Agent_state = Economic_Agent.participating;\r\n\t\tEconomic_Resource_Type_state = Economic_Resource_Type.resource_type_identified;\r\n\t}\r\n\r\n\tfunction identify_agent() public {\r\n\t\tbool _Economic_Agent_state = Economic_Agent_state == Economic_Agent.None;\r\n\t\trequire(_Economic_Agent_state, \"Economic Agent not satisfied, cannot run identify_agent\");\r\n\r\n\t\tEconomic_Agent_state = Economic_Agent.participating;\r\n\t}\r\n\r\n\tfunction identify_resource_type() public {\r\n\t\tbool _Economic_Resource_Type_state = Economic_Resource_Type_state == Economic_Resource_Type.None;\r\n\t\trequire(_Economic_Resource_Type_state, \"Economic Resource Type not satisfied, cannot run identify_resource_type\");\r\n\r\n\t\tEconomic_Resource_Type_state = Economic_Resource_Type.resource_type_identified;\r\n\t}\r\n\r\n\tfunction identify_available_resource() public {\r\n\t\tbool _Economic_Resource_state = Economic_Resource_state == Economic_Resource.None;\r\n\t\trequire(_Economic_Resource_state, \"Economic Resource not satisfied, cannot run identify_available_resource\");\r\n\r\n\t\tEconomic_Resource_state = Economic_Resource.available;\r\n\t}\r\n\r\n\tfunction sold() public {\r\n\t\tbool _Economic_Resource_state = Economic_Resource_state == Economic_Resource.available;\r\n\t\trequire(_Economic_Resource_state, \"Economic Resource not satisfied, cannot run sold\");\r\n\r\n\t\tEconomic_Resource_state = Economic_Resource.unavailable;\r\n\t}\r\n\r\n\tfunction request_catalogue() public {\r\n\t\tbool _Business_Process_Overview_state = Business_Process_Overview_state == Business_Process_Overview.None;\r\n\t\trequire(_Business_Process_Overview_state, \"Business Process Overview not satisfied, cannot run request_catalogue\");\r\n\r\n\t\tbool _Business_Process_Detail_state = Business_Process_Detail_state == Business_Process_Detail.None;\r\n\t\trequire(_Business_Process_Detail_state, \"Business Process Detail not satisfied, cannot run request_catalogue\");\r\n\r\n\t\tBusiness_Process_Overview_state = Business_Process_Overview.planning;\r\n\t\tBusiness_Process_Detail_state = Business_Process_Detail.catalogue_requested;\r\n\t}\r\n\r\n\tfunction non_committal_order() public {\r\n\t\tbool _Business_Process_Overview_state = Business_Process_Overview_state == Business_Process_Overview.planning;\r\n\t\trequire(_Business_Process_Overview_state, \"Business Process Overview not satisfied, cannot run non_committal_order\");\r\n\r\n\t\tbool _Business_Process_Detail_state = Business_Process_Detail_state == Business_Process_Detail.catalogue_received;\r\n\t\trequire(_Business_Process_Detail_state, \"Business Process Detail not satisfied, cannot run non_committal_order\");\r\n\r\n\t\tBusiness_Process_Overview_state = Business_Process_Overview.identification;\r\n\t\tBusiness_Process_Detail_state = Business_Process_Detail.identification;\r\n\t}\r\n\r\n\tfunction abandon() public {\r\n\t\tbool _Business_Process_Overview_state = Business_Process_Overview_state == Business_Process_Overview.planning || Business_Process_Overview_state == Business_Process_Overview.identification || Business_Process_Overview_state == Business_Process_Overview.negotiation || Business_Process_Overview_state == Business_Process_Overview.actualization;\r\n\t\trequire(_Business_Process_Overview_state, \"Business Process Overview not satisfied, cannot run abandon\");\r\n\r\n\t\tbool _Business_Process_Detail_state = Business_Process_Detail_state == Business_Process_Detail.catalogue_requested || Business_Process_Detail_state == Business_Process_Detail.catalogue_received || Business_Process_Detail_state == Business_Process_Detail.identification || Business_Process_Detail_state == Business_Process_Detail.negotiation || Business_Process_Detail_state == Business_Process_Detail.counter_consideration || Business_Process_Detail_state == Business_Process_Detail.remittance || Business_Process_Detail_state == Business_Process_Detail.despatch || Business_Process_Detail_state == Business_Process_Detail.receipt || Business_Process_Detail_state == Business_Process_Detail.invoice;\r\n\t\trequire(_Business_Process_Detail_state, \"Business Process Detail not satisfied, cannot run abandon\");\r\n\r\n\t\tBusiness_Process_Overview_state = Business_Process_Overview.post_actualization;\r\n\t\tBusiness_Process_Detail_state = Business_Process_Detail.abandoned;\r\n\t}\r\n\r\n\tfunction order() public {\r\n\t\tbool _Business_Process_Overview_state = Business_Process_Overview_state == Business_Process_Overview.identification || Business_Process_Overview_state == Business_Process_Overview.negotiation;\r\n\t\trequire(_Business_Process_Overview_state, \"Business Process Overview not satisfied, cannot run order\");\r\n\r\n\t\tbool _Business_Process_Detail_state = Business_Process_Detail_state == Business_Process_Detail.negotiation || Business_Process_Detail_state == Business_Process_Detail.counter_consideration;\r\n\t\trequire(_Business_Process_Detail_state, \"Business Process Detail not satisfied, cannot run order\");\r\n\r\n\t\tBusiness_Process_Overview_state = Business_Process_Overview.negotiation;\r\n\t\tBusiness_Process_Detail_state = Business_Process_Detail.offer_consideration;\r\n\t}\r\n\r\n\tfunction response_simple_accept() public {\r\n\t\tbool _Business_Process_Overview_state = Business_Process_Overview_state == Business_Process_Overview.negotiation;\r\n\t\trequire(_Business_Process_Overview_state, \"Business Process Overview not satisfied, cannot run response_simple_accept\");\r\n\r\n\t\tbool _Business_Process_Detail_state = Business_Process_Detail_state == Business_Process_Detail.offer_consideration;\r\n\t\trequire(_Business_Process_Detail_state, \"Business Process Detail not satisfied, cannot run response_simple_accept\");\r\n\r\n\t\tBusiness_Process_Overview_state = Business_Process_Overview.actualization;\r\n\t\tBusiness_Process_Detail_state = Business_Process_Detail.remittance;\r\n\t}\r\n\r\n\tfunction response_simple_reject() public {\r\n\t\tbool _Business_Process_Overview_state = Business_Process_Overview_state == Business_Process_Overview.negotiation;\r\n\t\trequire(_Business_Process_Overview_state, \"Business Process Overview not satisfied, cannot run response_simple_reject\");\r\n\r\n\t\tbool _Business_Process_Detail_state = Business_Process_Detail_state == Business_Process_Detail.offer_consideration;\r\n\t\trequire(_Business_Process_Detail_state, \"Business Process Detail not satisfied, cannot run response_simple_reject\");\r\n\r\n\t\tBusiness_Process_Overview_state = Business_Process_Overview.post_actualization;\r\n\t\tBusiness_Process_Detail_state = Business_Process_Detail.abandoned;\r\n\t}\r\n\r\n\tfunction invoice() public {\r\n\t\tbool _Business_Process_Overview_state = Business_Process_Overview_state == Business_Process_Overview.actualization;\r\n\t\trequire(_Business_Process_Overview_state, \"Business Process Overview not satisfied, cannot run invoice\");\r\n\r\n\t\tbool _Business_Process_Detail_state = Business_Process_Detail_state == Business_Process_Detail.invoice;\r\n\t\trequire(_Business_Process_Detail_state, \"Business Process Detail not satisfied, cannot run invoice\");\r\n\r\n\t\tBusiness_Process_Overview_state = Business_Process_Overview.post_actualization;\r\n\t\tBusiness_Process_Detail_state = Business_Process_Detail.completed;\r\n\t}\r\n\r\n\tfunction catalogue() public {\r\n\t\tbool _Business_Process_Detail_state = Business_Process_Detail_state == Business_Process_Detail.catalogue_requested;\r\n\t\trequire(_Business_Process_Detail_state, \"Business Process Detail not satisfied, cannot run catalogue\");\r\n\r\n\t\tBusiness_Process_Detail_state = Business_Process_Detail.catalogue_received;\r\n\t}\r\n\r\n\tfunction availability_report() public {\r\n\t\tbool _Business_Process_Detail_state = Business_Process_Detail_state == Business_Process_Detail.identification;\r\n\t\trequire(_Business_Process_Detail_state, \"Business Process Detail not satisfied, cannot run availability_report\");\r\n\r\n\t\tBusiness_Process_Detail_state = Business_Process_Detail.negotiation;\r\n\t}\r\n\r\n\tfunction response_counter() public {\r\n\t\tbool _Business_Process_Detail_state = Business_Process_Detail_state == Business_Process_Detail.offer_consideration;\r\n\t\trequire(_Business_Process_Detail_state, \"Business Process Detail not satisfied, cannot run response_counter\");\r\n\r\n\t\tBusiness_Process_Detail_state = Business_Process_Detail.counter_consideration;\r\n\t}\r\n\r\n\tfunction remittance_advice() public {\r\n\t\tbool _Business_Process_Detail_state = Business_Process_Detail_state == Business_Process_Detail.remittance;\r\n\t\trequire(_Business_Process_Detail_state, \"Business Process Detail not satisfied, cannot run remittance_advice\");\r\n\r\n\t\tBusiness_Process_Detail_state = Business_Process_Detail.despatch;\r\n\t}\r\n\r\n\tfunction despatch_advice() public {\r\n\t\tbool _Business_Process_Detail_state = Business_Process_Detail_state == Business_Process_Detail.despatch;\r\n\t\trequire(_Business_Process_Detail_state, \"Business Process Detail not satisfied, cannot run despatch_advice\");\r\n\r\n\t\tBusiness_Process_Detail_state = Business_Process_Detail.receipt;\r\n\t}\r\n\r\n\tfunction receipt_advice() public {\r\n\t\tbool _Business_Process_Detail_state = Business_Process_Detail_state == Business_Process_Detail.receipt;\r\n\t\trequire(_Business_Process_Detail_state, \"Business Process Detail not satisfied, cannot run receipt_advice\");\r\n\r\n\t\tBusiness_Process_Detail_state = Business_Process_Detail.invoice;\r\n\t}\r\n\r\n\tfunction offer() public {\r\n\t\tbool _Economic_Contract_state = Economic_Contract_state == Economic_Contract.None;\r\n\t\trequire(_Economic_Contract_state, \"Economic Contract not satisfied, cannot run offer\");\r\n\r\n\t\tEconomic_Contract_state = Economic_Contract.offered;\r\n\t}\r\n\r\n\tfunction accept() public {\r\n\t\tbool _Economic_Contract_state = Economic_Contract_state == Economic_Contract.offered;\r\n\t\trequire(_Economic_Contract_state, \"Economic Contract not satisfied, cannot run accept\");\r\n\r\n\t\tEconomic_Contract_state = Economic_Contract.accepted;\r\n\t}\r\n\r\n\tfunction service() public {\r\n\t\tbool _Economic_Contract_state = Economic_Contract_state == Economic_Contract.accepted;\r\n\t\trequire(_Economic_Contract_state, \"Economic Contract not satisfied, cannot run service\");\r\n\r\n\t\tbool _Economic_Commitment_state = Economic_Commitment_state == Economic_Commitment.proposed;\r\n\t\trequire(_Economic_Commitment_state, \"Economic Commitment not satisfied, cannot run service\");\r\n\r\n\t\tbool _Economic_Event_state = Economic_Event_state == Economic_Event.specified;\r\n\t\trequire(_Economic_Event_state, \"Economic Event not satisfied, cannot run service\");\r\n\r\n\t\tEconomic_Contract_state = Economic_Contract.in_service;\r\n\t\tEconomic_Commitment_state = Economic_Commitment.in_service_commitment;\r\n\t\tEconomic_Event_state = Economic_Event.in_service_event;\r\n\t}\r\n\r\n\tfunction complete_contract() public {\r\n\t\tbool _Economic_Contract_state = Economic_Contract_state == Economic_Contract.in_service;\r\n\t\trequire(_Economic_Contract_state, \"Economic Contract not satisfied, cannot run complete_contract\");\r\n\r\n\t\tEconomic_Contract_state = Economic_Contract.contract_complete;\r\n\t}\r\n\r\n\tfunction propose() public {\r\n\t\tbool _Economic_Commitment_state = Economic_Commitment_state == Economic_Commitment.None;\r\n\t\trequire(_Economic_Commitment_state, \"Economic Commitment not satisfied, cannot run propose\");\r\n\r\n\t\tEconomic_Commitment_state = Economic_Commitment.proposed;\r\n\t}\r\n\r\n\tfunction complete_commitment() public {\r\n\t\tbool _Economic_Commitment_state = Economic_Commitment_state == Economic_Commitment.in_service_commitment;\r\n\t\trequire(_Economic_Commitment_state, \"Economic Commitment not satisfied, cannot run complete_commitment\");\r\n\r\n\t\tEconomic_Commitment_state = Economic_Commitment.commitment_complete;\r\n\t}\r\n\r\n\tfunction specify() public {\r\n\t\tbool _Economic_Event_state = Economic_Event_state == Economic_Event.None;\r\n\t\trequire(_Economic_Event_state, \"Economic Event not satisfied, cannot run specify\");\r\n\r\n\t\tEconomic_Event_state = Economic_Event.specified;\r\n\t}\r\n\r\n\tfunction pending_contract() public {\r\n\t\tbool _Economic_Event_state = Economic_Event_state == Economic_Event.in_service_event;\r\n\t\trequire(_Economic_Event_state, \"Economic Event not satisfied, cannot run pending_contract\");\r\n\r\n\t\tEconomic_Event_state = Economic_Event.pending_event;\r\n\t}\r\n\r\n\tfunction complete_event() public {\r\n\t\tbool _Economic_Event_state = Economic_Event_state == Economic_Event.pending_event;\r\n\t\trequire(_Economic_Event_state, \"Economic Event not satisfied, cannot run complete_event\");\r\n\r\n\t\tEconomic_Event_state = Economic_Event.event_complete;\r\n\t}\r\n\r\n\tfunction phase_start() public {\r\n\t\tbool _Business_Process_Phase_state = Business_Process_Phase_state == Business_Process_Phase.None;\r\n\t\trequire(_Business_Process_Phase_state, \"Business Process Phase not satisfied, cannot run phase_start\");\r\n\r\n\t\tBusiness_Process_Phase_state = Business_Process_Phase.phase_waiting;\r\n\t}\r\n\r\n\tfunction phase_service() public {\r\n\t\tbool _Business_Process_Phase_state = Business_Process_Phase_state == Business_Process_Phase.phase_waiting;\r\n\t\trequire(_Business_Process_Phase_state, \"Business Process Phase not satisfied, cannot run phase_service\");\r\n\r\n\t\tBusiness_Process_Phase_state = Business_Process_Phase.in_service_phase;\r\n\t}\r\n\r\n\tfunction complete_phase() public {\r\n\t\tbool _Business_Process_Phase_state = Business_Process_Phase_state == Business_Process_Phase.in_service_phase;\r\n\t\trequire(_Business_Process_Phase_state, \"Business Process Phase not satisfied, cannot run complete_phase\");\r\n\r\n\t\tBusiness_Process_Phase_state = Business_Process_Phase.phase_complete;\r\n\t}\r\n\r\n}",
  "sourcePath": "C:/Users/lherskind/OneDrive - Deloitte (O365D)/Documents/GitHub/REABlockchain/solidity/contracts/REA_pre.sol",
  "compiler": {
    "name": "solc",
    "version": "0.7.3+commit.9bfce1f6.Emscripten.clang"
  },
  "schemaVersion": "3.3.1",
  "updatedAt": "2020-11-18T10:03:33.429Z",
  "devdoc": {
    "kind": "dev",
    "methods": {},
    "version": 1
  },
  "userdoc": {
    "kind": "user",
    "methods": {},
    "version": 1
  }
}